:100000000C9493000C94BB000C94BB000C94BB00AC
:100010000C94BB000C94BB000C94BB000C94BB0074
:100020000C94BB000C94BB000C94BB000C94C60D4C
:100030000C94BB000C94BB000C94BB000C94BB0054
:100040000C94240D0C94BB000C94940D0C946E0D28
:100050000C94BB000C94BB000C94BB000C94BB0034
:100060000C94BB000C94BB00084AD73B3BCE016EFE
:1000700084BCBFFDC12F3D6C74319ABD56833DDAFF
:100080003D00C77F11BED9E4BB4C3E916BAAAABE0E
:10009000000000803F072C7AA5BA6CC590DA3B932C
:1000A00065FC8BBC53F810FD3C5692834DBD879D7B
:1000B0003AB63DCBC9BF5BBE73DA0FC93F0063647C
:1000C000696E6F70737578585B0000000000240043
:1000D00027002A0000000000250028002B00000057
:1000E000000023002600290004040404040404047E
:1000F00002020202020203030303030301020408D3
:100100001020408001020408102001020408102081
:1001100000000008000201000003040700000000C6
:10012000000000009D0E11241FBECFEFD8E0DEBFFF
:10013000CDBF14E0A0E0B1E0E2EDF5E302C0059030
:100140000D92A435B107D9F725E0A4E5B4E001C0CC
:100150001D92AA38B207E1F710E0C3E9D0E004C06D
:100160002197FE010E94E715C239D107C9F70E9405
:10017000540F0C94E71A0C940000A7E2B5E020E3BA
:1001800035E0FD018081803231F09181891303C017
:100190009281891771F133962E173F0799F72AE25A
:1001A00035E08D91803251F012969C91129789130F
:1001B00005C015969C9115978917D9F02A173B070A
:1001C00081F790912705903241F080912B0598138B
:1001D00004C080912F05981761F080912905803225
:1001E00041F090912B05891303C080912D05981340
:1001F00080E20895833081F028F4813099F08230D4
:10020000A9F008958730A9F08830C9F08430B1F49E
:10021000809180008F7D03C0809180008F778093D4
:100220008000089584B58F7784BD089584B58F7D4F
:10023000FBCF8091B0008F778093B00008958091BC
:10024000B0008F7DF9CFCF93DF93282F30E0F901F5
:10025000E05FFE4F8491F901E450FF4FD491F90122
:10026000E851FF4FC491CC23A1F081110E94FA0004
:10027000EC2FF0E0EE0FFF1FE252FF4FA591B4917B
:10028000EC91ED2381E090E009F480E0DF91CF91E3
:10029000089580E090E0FACF1F93CF93DF93282F4B
:1002A00030E0F901E05FFE4F8491F901E450FF4F27
:1002B000D491F901E851FF4FC491CC23A9F0162F36
:1002C00081110E94FA00EC2FF0E0EE0FFF1FEC52BC
:1002D000FF4FA591B4918FB7F894EC91111108C01C
:1002E000D095DE23DC938FBFDF91CF911F910895CE
:1002F000DE2BF8CFCF93DF9390E0FC01E450FF4F6B
:10030000249188519F4FFC0184918823D1F090E083
:10031000880F991FFC01E653FF4FA591B491FC0192
:10032000EC52FF4FC591D491623071F49FB7F894AD
:100330003C91822F809583238C93E8812E2B2883F8
:100340009FBFDF91CF9108958FB7F894EC912E2B3A
:100350002C938FBFF6CF8E3008F08E50877080645C
:1003600080937C0080917A00806480937A008091F1
:100370007A0086FDFCCF80917800909179000895F5
:100380003FB7F8948091820490918304A0918404F3
:10039000B091850426B5A89B05C02F3F19F00196A2
:1003A000A11DB11D3FBFBA2FA92F982F8827BC01CF
:1003B000CD01620F711D811D911D42E0660F771FF7
:1003C000881F991F4A95D1F708958F929F92AF92F7
:1003D000BF92CF92DF92EF92FF926B017C010E945D
:1003E000C0014B015C01C114D104E104F104B9F076
:1003F0000E94C001681979098A099B09683E734007
:100400008105910580F321E0C21AD108E108F108C5
:1004100088EE880E83E0981EA11CB11CE4CFFF90EB
:10042000EF90DF90CF90BF90AF909F908F90089506
:10043000AF92BF92CF92DF92EF92FF920F931F93F2
:10044000CF93DF936C017B018B01040F151FEB0130
:100450005E01AE18BF08C017D10759F06991D601E7
:10046000ED91FC910190F081E02DC6010995892B59
:1004700079F7C501DF91CF911F910F91FF90EF9018
:10048000DF90CF90BF90AF900895FC01538D448DC5
:10049000252F30E0842F90E0821B930B541710F02F
:1004A000CF96089501970895FC01918D828D98173C
:1004B00061F0A28DAE0FBF2FB11D5D968C91928D14
:1004C0009F5F9F73928F90E008958FEF9FEF089545
:1004D0002FB7F8948091860490918704A0918804A6
:1004E000B09189042FBF8093920490939304A093BA
:1004F0009404B09395048AE894E00E94540297FF14
:1005000026C02FB7F8948091860490918704A0911B
:100510008804B09189042FBF4091920450919304B4
:100520006091940470919504841B950BA60BB70BF6
:1005300040918E0450918F046091900470919104C9
:1005400084179507A607B707B0F28FEF9FEF0895BE
:10055000FC01918D828D981731F0828DE80FF11D8D
:10056000858D90E008958FEF9FEF0895FC01918DA8
:10057000228D892F90E0805C9F4F821B91098F73A1
:10058000992708958AE894E00E94B60221E0892B19
:1005900009F420E0822F089580E090E0892B29F073
:1005A0000E94C20281110C9400000895FC01A48DE8
:1005B000A80FB92FB11DA35ABF4F2C91848D90E085
:1005C00001968F739927848FA689B7892C93A08968
:1005D000B1898C91837080648C93938D848D9813F2
:1005E00006C00288F389E02D80818F7D8083089585
:1005F000EF92FF920F931F93CF93DF93EC0181E073
:10060000888F9B8D8C8D98131AC0E889F989808119
:1006100085FF15C09FB7F894EE89FF896083E8894C
:10062000F98980818370806480839FBF81E090E03E
:10063000DF91CF911F910F91FF90EF900895F62ECB
:100640000B8D10E00F5F1F4F0F731127E02E8C8D65
:100650008E110CC00FB607FCFACFE889F9898081AA
:1006600085FFF5CFCE010E94D602F1CFEB8DEC0FC6
:10067000FD2FF11DE35AFF4FF0829FB7F8940B8FC7
:10068000EA89FB8980818062CFCFCF93DF93EC0131
:10069000888D8823B9F0AA89BB89E889F9898C916A
:1006A00085FD03C0808186FD0DC00FB607FCF7CF26
:1006B0008C9185FFF2CF808185FFEDCFCE010E9426
:1006C000D602E9CFDF91CF910895CF92DF92EF92DA
:1006D000FF92CF93DF93EC01603282E07807CCF594
:1006E000653B710514F064EB70E0898128E830E027
:1006F000281B310987FD3395220F331F220F331F2B
:100700006901330FEE08FF088A8128E532E0281BD3
:10071000310987FD3395220F331F220F331F032E1C
:10072000000C440B550B2C193D094E095F09DB01E8
:1007300077FF02C0B0E0A0E00E945E1324EB30E03F
:1007400040E050E00E943413C20ED31EE41EF51E9A
:10075000B601E881EC3070F5298188E890E0821BD1
:10076000910927FD9395880F991F880F991F681786
:1007700079077CF02A8188E592E0821B910927FDA8
:100780009395880F991F880F991F681779070CF4A4
:10079000CB010297880F991F4FB7F8942E2F30E0A6
:1007A000F901EE0FFF1FE20FF31FEA5AFB4F92838E
:1007B00081834FBFDF91CF91FF90EF90DF90CF907B
:1007C00008951F93CF93DF93EC01162F88818C300F
:1007D00008F04EC061E0812F0E947A018881282FA5
:1007E00030E0F901EE0FFF1FE20FF31FEA5AFB4F53
:1007F0001F736081607C612B608319821A822CE0F8
:10080000622F0E94DB15829FB001112430E020E0AE
:10081000AB01420F531FFA01EE0FFF1FE40FF51F4C
:10082000EA5AFB4F908196FD16C02F5F3F4F2C3048
:10083000310571F781110FC01092800082E0809322
:1008400081001092850010928400B19A80916F000F
:10085000826080936F00E8818E2F90E0FC01EE0FA4
:10086000FF1FE80FF91FEA5AFB4F808180648083E5
:100870008881DF91CF911F9108950F931F93CF939C
:10088000DF93EC0188810E94AB0100E012E0980147
:10089000281B390BC901181619067CF488810E949F
:1008A000AB01081B190B083211056CF08881DF9130
:1008B000CF911F910F910C94AB0188810E94AB01E5
:1008C000883292409CF780E092E0DF91CF911F91B7
:1008D0000F9108958F929F92AF92BF92EF92FF92E5
:1008E0000F931F93CF93DF93EC010D811E8160174F
:1008F000710734F00F811885601771070CF48B01B4
:100900008B819C8180179107C4F0EE24EA94FE2C21
:100910004A01550FAA08BB086B817C8160177107DB
:1009200081F06E0D7F1D7C836B83CE010E94650379
:10093000C501B4010E94E501EFCFEE24E394F12C50
:10094000E7CFDF91CF911F910F91FF90EF90BF9074
:10095000AF909F908F900895FC012581368162179A
:10096000730734F027813085621773070CF49B01FD
:10097000FC0134832383B9010C946503FC010190CD
:100980000020E9F73197AF01481B590BBC018AE8F9
:1009900094E00C9418028F929F92AF92BF920F93A3
:1009A0001F93CF93DF93CDB7DEB7A1970FB6F8941F
:1009B000DEBF0FBECDBF19A2423008F44AE08E015F
:1009C0000F5D1F4F842E912CB12CA12CA5019401F9
:1009D0000E949D13E62FB901CA01EA30F4F4E05DEC
:1009E000D801EE938D01232B242B252B79F790E052
:1009F00080E0109719F0CD010E94BE04A1960FB6B9
:100A0000F894DEBF0FBECDBFDF91CF911F910F9144
:100A1000BF90AF909F908F900895E95CE1CFCF9306
:100A2000DF930E94BE04EC0188E391E00E94BE04C3
:100A30008C0F9D1FDF91CF9108950C94BE040F93EE
:100A40001F93CF93DF9384EB91E00E940F05C7E2E1
:100A5000D5E08CE391E00E941D0510E000E0FE016E
:100A6000E00FF11F60818AE894E00E94F8028BE3B6
:100A700091E00E941D050F5F1F4F0330110579F7AC
:100A800088E391E00E94BE0484EB91E00E940F0590
:100A9000239685E0C033D807E1F6DF91CF911F910F
:100AA0000F9108954F925F926F927F928F929F92D3
:100AB000AF92BF92CF92DF92EF92FF920F931F936C
:100AC000CF93DF93CDB7DEB72E970FB6F894DEBF86
:100AD0000FBECDBF4B015C0129013A01ED82FE82C0
:100AE0000F831887DE86CD86AC019B01C801B70154
:100AF0000E947B140E944C1421EE3EE245E652E433
:100B00000E947312905829E432E944E250E40E94B2
:100B1000731220E030E044EB52E40E94E013609353
:100B200038057093390580933A0590933B0520E092
:100B300030E043E852E4C301B2010E94DF136B01CD
:100B40007C0120E030E0A901C501B4010E946A15D2
:100B500018160CF418C220E030E0A901C501B40158
:100B60000E940D1287FD18C219821A821B821C82F4
:100B7000A5019401C501B4010E9473122B013C012F
:100B80002D813E814F815885CA01B9010E9473129F
:100B90009B01AC01C301B2010E94E0130E947D15CC
:100BA0002B013C0169817A818B819C819058A30142
:100BB00092010E94731220E030E040EE50E40E9467
:100BC000DF1320E030E040E752E40E94DF139B0196
:100BD000AC01C701B6010E947B140E944C1421EEA7
:100BE0003EE245E652E40E94731269877A878B875A
:100BF0009C8720E030E0A901C501B4010E946A157C
:100C000018160CF4CEC120E030E0A901C501B401F2
:100C10000E940D1287FDCAC180E090E0DC01BC019A
:100C2000CD019058A30192010E94731220E030E0A0
:100C300040EE50E40E94DF1320E030E040E752E451
:100C40000E94DF136D837E838F839887A7019601AF
:100C5000C701B6010E94731269837A838B839C83D8
:100C60002D813E814F815885CA01B9010E947312BE
:100C700020E032E64EE856E40E94E01329813A81F2
:100C80004B815C810E94E01320E032E444EA56E4A8
:100C90000E94DF136B017C0120E030E0A901C50157
:100CA000B4010E946A1518160CF485C120E030E0EA
:100CB000A901C501B4010E940D1287FD81C180E028
:100CC00090E0DC01BC01CD019058A30192010E948B
:100CD000731220E030E040EE50E40E94DF1320E089
:100CE00030E040E752E40E94DF139B01AC010E9418
:100CF000731229813A814B815C810E94E0130E942A
:100D00007D1520E030E047E853E40E9473129B0118
:100D1000AC01C701B6010E947B140E94CE1321EEE4
:100D20003EE245E652E40E9473129B01AC0160E092
:100D300070E08EED92E40E94DF1329853A854B85A1
:100D40005C850E94DF136B017C01C0923C05D09250
:100D50003D05E0923E05F0923F0520E030E0A9011C
:100D6000C501B4010E946A1518160CF42EC120E0CA
:100D700030E0A901C501B4010E940D1287FD2AC10E
:100D800080E090E0DC01BC01CD019058A30192010C
:100D90000E94731220E030E046E852E40E94DF1324
:100DA0009B01AC010E9473129B01AC0160E072E5F3
:100DB00089E197E40E94DF1329813A814B815C81AC
:100DC0000E94DF1320E03EEE48E157E40E947B14CE
:100DD0000E94CE132B013C0120E030E047EA52E4B0
:100DE000C701B6010E94E0134B015C0121EE3EE217
:100DF00045E652E4C301B2010E9473129B01AC01AB
:100E0000C501B4010E94DF139B01AC0160E070E0FA
:100E100084E393E40E94DF136093400570934105DF
:100E20008093420590934305A0903005B090310522
:100E300020E030E0A901C701B6010E94E0136B0178
:100E40007C0120E030E0A9010E940D1270E060E01A
:100E500087FD10C020E030E04AE253E4C701B6014C
:100E60000E946A156AEA70E0181624F0C701B601FC
:100E70000E94ED144D855E85C5010E946A0464EFF1
:100E800071E080E090E00E94E501E0903405F09090
:100E9000350520E030E0A9016091380570913905F1
:100EA00080913A0590913B050E94E0134B015C0153
:100EB00020E030E0A9010E940D1270E060E087FDA3
:100EC00010C020E030E044E353E4C501B4010E94C7
:100ED0006A1564EB70E0181624F0C501B4010E9495
:100EE000ED144D855E85C7010E946A0464EF71E0D0
:100EF00080E090E00E94E501E0903205F09033053B
:100F000020E030E0A9016091400570914105809199
:100F10004205909143050E94E0134B015C0120E0E3
:100F200030E0A9010E940D1270E060E087FD10C062
:100F300020E030E04EEB52E4C501B4010E946A1596
:100F40006FE570E0181624F0C501B4010E94ED149D
:100F50004D855E85C7012E960FB6F894DEBF0FBE95
:100F6000CDBFDF91CF911F910F91FF90EF90DF9058
:100F7000CF90BF90AF909F908F907F906F905F9039
:100F80004F900C946A0480E090E0A0E8BFE389836E
:100F90009A83AB83BC83ECCD80E090E0A0E8BFEB0C
:100FA000F6CF80E090E0A0E8BFE339CE80E090E0AB
:100FB000A0E8BFEB34CE80E090E0A0E8BFE382CEB3
:100FC00080E090E0A0E8BFEB7DCE80E090E0A0E87C
:100FD000BFE3D9CE80E090E0A0E8BFEBD4CECF92C3
:100FE000DF92EF92FF920F931F938EE1C82ED12CC8
:100FF000E12CF12C08EC12EC20E030E040EC50E465
:1010000060E070E08CE593EC0E9452051F910F9117
:10101000FF90EF90DF90CF9008954F925F926F9284
:101020007F928F929F92AF92BF92CF92DF92EF9278
:10103000FF920F931F93CF936B017C01742EAC0131
:101040009B010E94C115882399F08FE391E0CF9115
:101050001F910F91FF90EF90DF90CF90BF90AF90D6
:101060009F908F907F906F905F904F900C94BE04F4
:1010700046015701E894B7F82FEF3FEF4FE75FE7DE
:10108000C501B4010E94C11581110DC02FEF3FEFC2
:101090004FE75FE7C501B4010E940D1218161CF45A
:1010A00083E491E0D4CF2FEF3FEF4FE75FE4C70138
:1010B000B6010E946A1518161CF487E491E0C7CFA8
:1010C0002FEF3FEF4FE75FECC701B6010E940D1213
:1010D00087FDF3CF20E030E0A901C701B6010E94EF
:1010E0000D1210E000E087FF0AC06DE28AE894E08C
:1010F0000E94F8028C01F7FAF094F7F8F094C0E03F
:1011000060E070E080E09FE37C1641F020E030E09A
:1011100040E251E40E947B14CF5FF6CFA701960115
:101120000E94E0132B013C010E94F4144B015C016E
:101130004AE00E94CB047C01E00EF11ECC23C1F1F9
:10114000C501B4010E9412129B01AC01C301B2019E
:101150000E94DF134B015C016EE28AE894E00E947A
:10116000F802E80EF91EC15018F120E030E040E22C
:1011700051E4C501B4010E9473122B013C010E948D
:10118000F4144B01B12CA12C4AE0C501B4010E941A
:10119000CB04E80EF91EC501B4010E9412129B0196
:1011A000AC01C301B2010E94DF134B015C01DBCF34
:1011B000C701CF911F910F91FF90EF90DF90CF90DB
:1011C000BF90AF909F908F907F906F905F904F9067
:1011D0000895CF92DF92EF92FF92CF93DF936C014D
:1011E000990FEE08FF08F7FE19C06DE28AE894E057
:1011F0000E94F802EC0166277727CB016C197D0964
:101200008E099F094AE00E94CB048C0F9D1FDF913D
:10121000CF91FF90EF90DF90CF9008954AE0C70103
:10122000B601DF91CF91FF90EF90DF90CF900C94BB
:10123000CB044F925F926F927F928F929F92AF9268
:10124000BF92CF92DF92EF92FF920F931F93CF93B3
:10125000DF9300D000D000D0CDB7DEB78C017E8305
:101260006D8329013A01EE24E394F12CB701601B50
:10127000710B072E000C880B990B0E94141220E0B2
:1012800030E040EF51E40E94731220E030E042E58C
:1012900053E40E94DF134B015C01A301920160E063
:1012A00070E0CB010E94DF132B013C01B7018D815F
:1012B0009E81681B790B072E000C880B990B0E94EE
:1012C000141220E030E040EF51E40E9473129B01C1
:1012D000AC0160E070E0CB010E94DF1369837A8388
:1012E0008B839C838BE491E00E941D05C8010E94C2
:1012F000E90889E591E00E941D058D819E810E948B
:10130000E9088CE591E00E941D0542E0C501B401A9
:101310000E940D088BE691E00E941D0542E0C3018A
:10132000B2010E940D088BE691E00E941D0542E08B
:1013300069817A818B819C810E940D088CE993E000
:101340000E940F0594E1C92ED12CE980FA800B810F
:101350001C81A3019201C501B4010E945205269689
:101360000FB6F894DEBF0FBECDBFDF91CF911F91B6
:101370000F91FF90EF90DF90CF90BF90AF909F9034
:101380008F907F906F905F904F9008950F931F9371
:10139000CF93DF93EC0188819981009759F02A81DE
:1013A0003B812617370730F081E0DF91CF911F9105
:1013B0000F9108958B016F5F7F4F0E941217009766
:1013C00059F0998388831B830A832C813D81232BC9
:1013D00059F7FC011082E8CF80E0E7CF2F923F92CF
:1013E0004F925F926F927F928F929F92AF92BF9235
:1013F000CF92DF92EF92FF920F931F93CF93DF93E1
:10140000CDB7DEB7A2970FB6F894DEBF0FBECDBF43
:1014100027E2A22E25E0B22E6501912C812C08E551
:101420007601712C612CF7011081103209F0D3C0C4
:1014300000830E94BD00883509F0CBC0F401EE0F97
:10144000FF1FE80DF91DE95DFA4FE60DF71D10834A
:101450008EE691E00E940F0568EE73E080E090E078
:101460000E94E50183E891E00E941D05C4010E94ED
:10147000E90889E591E00E941D05C3010E94E90881
:1014800086E991E00E940F0569E170E080913605E0
:10149000909137050E94AC0464EF71E080E090E029
:1014A0000E94E5016EE1C62ED12CE12CF12C08EC56
:1014B00012EC20E030E040EC51EC60E070E08CE5B4
:1014C00093EC0E94520570E060E0809136059091A7
:1014D00037050E94AC0464EF71E080E090E00E9468
:1014E000E50120E030E040EF51ECB301C4010E947F
:1014F000190964EF71E080E090E00E94E50120E0CE
:1015000030E040EA51E4B301C4010E94190964EFDC
:1015100071E080E090E00E94E50169E170E0809177
:101520003605909137050E94AC0464EF71E080E0CD
:1015300090E00E94E50120E030E040EF51ECB30183
:10154000C4010E94190920E030E040EC50E460E062
:1015500070E08CE593EC0E94520593E089169104AB
:1015600090F4E3E06E16710470F4F401EE0FFF1FC7
:10157000E80DF91DE95DFA4FE60DF71D8081803217
:1015800011F488E580830E941F050E94BD00E7E2F8
:10159000F5E0883509F0CFC088E991E00E940F0599
:1015A00082EC91E00E940F0589E991E00E940F050D
:1015B00082E090E090937C0480937B0460ED77E080
:1015C00080E090E00E94E5018FEC91E00E940F0521
:1015D0004FC1F7011083FFEF6F1A7F0A2FEFE21A56
:1015E000F20A83E06816710409F01DCF9FEF891A93
:1015F000990AE3E0CE0ED11CF3E08F16910409F0B6
:101600000FCF97E2C92E95E0D92E912C812C0FE4B3
:101610007601712C612CF7011081103241F40083A6
:101620000E94BD008F3409F409CFF7011083FFEF4A
:101630006F1A7F0A2FEFE21AF20A83E0681671042C
:1016400051F79FEF891A990AE3E0CE0ED11CF3E01F
:101650008F169104E9F680912B05803209F45DC064
:1016600080E1E6E0F1E0DE01519601900D928A956D
:10167000E1F7DE0151969E012F5D3F4FCD018D9028
:101680009C90119712966D907C901397F401EE0F39
:10169000FF1FE80DF91DE95DFA4FE60DF71D4081CA
:1016A000403209F4D5CE1496A217B30741F720E1D2
:1016B000E6E1F1E0DE01119601900D922A95E1F745
:1016C000FE0131968080918062807380D401AA0FE0
:1016D000BB1FA80DB91DA95DBA4FA60DB71D2C9152
:1016E000203209F4B5CE3496E817F90759F7E7E246
:1016F000F5E0912C812C80818032B1F081818032A3
:1017000079F08281803299F02FEF821A920A339613
:1017100083E08816910479F79BCE88248394912CDA
:1017200066246394712C94CE712C612C91CEE2E0EE
:101730006E2E712C8DCE8081803209F46CC1818136
:10174000803209F468C18281803209F464C1339621
:1017500025E0E033F20779F788E991E00E940F0570
:101760008BEC92E01FCF1E821D826AE371E0C901FB
:101770000E94D81700C1C980DA80C114D10439F0A1
:101780000D811E8176010115110509F08BC07AA229
:1017900069A27A8A698A9F928F923F922F928CEFE8
:1017A00091E09F938F938A818F9389818F930E9479
:1017B000DF178C010FB6F894DEBF0FBECDBF0297C6
:1017C00009F022C129A13AA12330310508F019C13D
:1017D00089899A898330910508F013C1F901EE0FC8
:1017E000FF1FE20FF31FE95DFA4FE80FF91F808139
:1017F000803209F08DC08FE4808382E092E00E9405
:101800001D0589A19AA10E94E90889E591E00E943D
:101810001D0589899A890E94E90886E991E00E945C
:101820000F050E941F050E94BD008F3409F0C4C03F
:1018300088E991E00E940F0583E492E00E940F0581
:1018400089E991E00E940F0510937C0400937B04CA
:1018500060ED77E080E090E00E94E5018FEC91E0A0
:101860000E940F0589819A81009711F00E948916C4
:10187000A2960FB6F894DEBF0FBECDBFDF91CF9119
:101880001F910F91FF90EF90DF90CF90BF90AF909E
:101890009F908F907F906F905F904F903F902F9090
:1018A0000895720127018FEF481A580AF7018081C5
:1018B000082E000C990B0E940412892B91F70150FD
:1018C00011090C0D1D1DF8018081082E000C990BCB
:1018D0000E940412892B31F00E151F0518F00150DB
:1018E0001109F1CFA8014F5F5F4F4E195F095E8369
:1018F0004D83CE14DF0420F4B701C6010E94CF1738
:10190000E981FA818D819E81E80FF91F10823FCF16
:1019100081E292E00E940F0589819A81009711F07F
:101920000E94891668EC70E080E090E00E94E5017A
:101930008AE894E00E94B602181619069CF71A82EB
:1019400019821C821B821E821D8270E060E0CE0123
:1019500001960E94C60929813A81811104CF21157F
:10196000310519F0C9010E9489161A8219821E8256
:101970001D821C821B820E94680297FDFCCE8A3069
:10198000910509F4F8CE898B1A8A0D811E810F5FAB
:101990001F4FB801CE0101960E94C609882359F352
:1019A00029813A818D819E81B401820F931F0E940B
:1019B000D8171E830D83DFCFF50180818032D9F1E6
:1019C00081818032C1F182818032A9F1F3E0AF0ED2
:1019D000B11C80E395E08A159B0571F788E991E0D9
:1019E0000E940F058BEC92E00E940F0589E991E0BF
:1019F0000E940F0582E090E090937C0480937B042A
:101A000027CF8EE492E086CF84E792E00E940F0514
:101A10008AE391E07FCF8AE992E00E940F054E01B0
:101A200091E1890E911C66246A94762C1E01E1E2F4
:101A30002E0E311C7DCF68EE73E080E090E00E94B6
:101A4000E5010E94EE090ECF1F920F920FB60F9282
:101A500011242F933F938F939F93AF93BF938091C4
:101A6000860490918704A0918804B09189043091F4
:101A7000810423E0230F2D3758F50196A11DB11DD8
:101A8000209381048093860490938704A093880414
:101A9000B09389048091820490918304A09184047E
:101AA000B09185040196A11DB11D8093820490938D
:101AB0008304A0938404B0938504BF91AF919F9158
:101AC0008F913F912F910F900FBE0F901F901895FF
:101AD00026E8230F0296A11DB11DD2CF1F920F92AF
:101AE0000FB60F9211242F933F934F935F936F93F1
:101AF0007F938F939F93AF93BF93EF93FF938AE866
:101B000094E00E94D602FF91EF91BF91AF919F9117
:101B10008F917F916F915F914F913F912F910F9096
:101B20000FBE0F901F9018951F920F920FB60F9235
:101B300011242F938F939F93EF93FF93E0919A0437
:101B4000F0919B048081E091A004F091A10482FDBA
:101B50001BC090818091A3048F5F8F732091A40498
:101B6000821741F0E091A304F0E0E657FB4F958F18
:101B70008093A304FF91EF919F918F912F910F90EC
:101B80000FBE0F901F9018958081F4CF1F920F9277
:101B90000FB60F9211242F933F934F935F936F9340
:101BA0007F938F939F93AF93BF93CF93DF93EF93E5
:101BB000FF9380915404C0915504D0E087FF24C066
:101BC0001092850010928400809154048F5F80935E
:101BD000540480915404082E000C990B8C179D0717
:101BE00024F4809154048C30C4F18091840090914D
:101BF0008500049680349C4908F47AC08091840062
:101C000090918500049676C080915404082E000CB3
:101C1000990B8C179D07C4F6E09154048E2FEE0F9C
:101C2000990BFC01EE0FFF1FE80FF91FEA5AFB4F5B
:101C3000808186FFC9CFE09154048E2FEE0F990B5F
:101C4000FC01EE0FFF1FE80FF91FEA5AFB4F8081DE
:101C500060E08F730E944C01B7CF209184003091D7
:101C60008500E09154048E2FEE0F990BFC01EE0FCE
:101C7000FF1FE80FF91FEA5AFB4F81819281820F03
:101C8000931F9093890080938800E09154048E2FD5
:101C9000EE0F990BFC01EE0FFF1FE80FF91FEA5A38
:101CA000FB4F808186FF11C0E09154048E2FEE0F10
:101CB000990BFC01EE0FFF1FE80FF91FEA5AFB4FCB
:101CC000808161E08F730E944C01FF91EF91DF9161
:101CD000CF91BF91AF919F918F917F916F915F91C4
:101CE0004F913F912F910F900FBE0F901F9018951D
:101CF00080E49CE990938900809388008FEF809323
:101D00005404E3CFFC01909155049C3098F481E099
:101D1000890F809355049083892F90E0FC01EE0F8A
:101D2000FF1FE80FF91FEA5AFB4F88EB9BE09283F5
:101D3000818308958FEF80830895EF92FF920F9330
:101D40001F93CF93DF93EAE8F4E01382128288EEC8
:101D500093E0A0E0B0E084839583A683B7838AE212
:101D600091E09183808385EC90E09587848784EC73
:101D700090E09787868780EC90E0918B808B81EC58
:101D800090E0938B828B82EC90E0958B848B86EC39
:101D900090E0978B868B118E128E138E148E8BE7AC
:101DA00095E00E94820E8BE7E82E85E0F82EF70181
:101DB00014821382168215828AEA90E090878783C4
:101DC00080E795E00E94820E00E715E0F80114829A
:101DD0001382168215828FE590E09087878385E6CF
:101DE00095E00E94820EC5E6D5E01C821B821E8211
:101DF0001D8284EB90E098878F838AE595E00E94AE
:101E0000820EAAE5B5E014961C921E9213971696C0
:101E10001C921E92159789E190E018969C938E93E0
:101E20001797EFE4F5E08EE090E0918380838FE0F8
:101E300090E09383828382E090E09583848316828E
:101E40001782108611861286E4E4F5E080E190E0C6
:101E50009183808381E190E09383828383E090E0AB
:101E60009583848316821782108611861286E0E39A
:101E7000F5E0F182E08213830283D583C483B783C4
:101E8000A683E7E2F5E080E2808381838283838317
:101E900084838583868387838087DF91CF911F9199
:101EA0000F91FF90EF900895789484B5826084BD7F
:101EB00084B5816084BD85B5826085BD85B581604E
:101EC00085BD80916E00816080936E0010928100CC
:101ED0008091810082608093810080918100816087
:101EE0008093810080918000816080938000809148
:101EF000B10084608093B1008091B00081608093D4
:101F0000B00080917A00846080937A0080917A009A
:101F1000826080937A0080917A00816080937A0059
:101F200080917A00806880937A001092C100E091DD
:101F30009A04F0919B0482E08083E0919604F091F2
:101F400097041082E0919804F09199048FEC8083BB
:101F50001092A204E0919E04F0919F0486E0808399
:101F6000E0919C04F0919D04808180618083E091E8
:101F70009C04F0919D04808188608083E0919C04A2
:101F8000F0919D04808180688083E0919C04F091B1
:101F90009D0480818F7D808388E090E0909385050B
:101FA0008093840568E070E08BE795E00E94E10390
:101FB00069E470E08BE795E00E94AC0489E090E072
:101FC00090937A058093790569E070E080E795E069
:101FD0000E94E10367E670E080E795E00E94AC04B0
:101FE0008AE090E090936F0580936E056AE070E060
:101FF00085E695E00E94E1036BE170E085E695E0FF
:102000000E94AC048BE090E090936405809363059C
:102010006BE070E08AE595E00E94E10370E060E02B
:102020008AE595E00E94AC0462E0809153050E942D
:102030007A0162E0809148050E947A010E94EF07D0
:1020400089E991E00E940F0581ED92E00E940F0561
:1020500089E991E00E940F058AEF92E00E940F0546
:1020600083E293E00E940F058CE493E00E940F0549
:1020700085E793E00E940F058EE993E00E940F052B
:1020800089E991E00E940F05CC24CA9463E0D62E22
:10209000E12CF12C00E010E0D1E072E0A72EB12C91
:1020A00088248394912CC0E28FB7F89440908604E2
:1020B0005090870460908804709089048FBF40928C
:1020C0007D0450927E0460927F047092800480911F
:1020D0007B0490917C04019709F484C08FE495E01F
:1020E0000E943D04BC01990F880B990B23E0660FF9
:1020F000771F881F991F2A95D1F7A70196010E9483
:102100003413245031094109510960917E057091C1
:102110007F05620F731F8BE795E00E94AC0481E599
:1021200095E00E943D04BC01990F880B990B33E0A8
:10213000660F771F881F991F3A95D1F7A70196015F
:102140000E943413245031094109510960917305EB
:1021500070917405620F731F80E795E00E94AC04D4
:1021600084E495E00E943D04BC01990F880B990B13
:1021700043E0660F771F881F991F4A95D1F7A70183
:1021800096010E943413245031094109510960918C
:10219000680570916905620F731F85E695E00E94DE
:1021A000AC0486E495E00E943D04BC01990F880BC5
:1021B000990B54E0660F771F881F991F5A95D1F726
:1021C000A70196010E943413285031094109510991
:1021D00060915D0570915E05620F731F8AE595E061
:1021E0000E94AC04809153050E94230121E00097D6
:1021F00009F020E020935905892B09F0D0C0809187
:10220000550590915605A0915705B0915805892B19
:102210008A2B8B2B41F440925505509256056092C3
:10222000570570925805809148050E94230121E0CE
:10223000009709F020E020934E05009709F0B8C000
:1022400040914A0550914B0560914C0570914D05A8
:10225000452B462B472B41F440924A0550924B05A3
:1022600060924C0570924D0520915905211104C0D2
:10227000892B11F010927A0480917A0481117DC02B
:102280002FB7F8948091860490918704A0918804D8
:10229000B09189042FBF80937D0490937E04A09316
:1022A0007F04B093800420915905222309F465C06E
:1022B00020914E05222309F460C0409155055091AC
:1022C000560560915705709158052C013D01441A3F
:1022D000550A660A770AB301A2014C3D55406105D3
:1022E000710508F44AC040914A0550914B05609130
:1022F0004C0570914D05841B950BA60BB70B8C3DBF
:102300009540A105B105C8F1D0937A0480917B0472
:1023100090917C04009709F054C088E991E00E94F4
:102320000F0587EC93E00E940F0589E991E00E9478
:102330000F0590927C0480927B04C0932705C09384
:102340002805C0932905C0932A05C0932B05C09387
:102350002C05C0932D05C0932E05C0932F0580EF4B
:1023600093E00E940F050E941F0568EE73E080E075
:1023700090E00E94E5010E94EE0964E670E080E0D2
:1023800090E00E94E5010115110509F48DCE0E942F
:10239000C202882309F488CE0E94000085CE1092E4
:1023A00055051092560510925705109258053BCFCF
:1023B00010924A0510924B0510924C0510924D0553
:1023C00053CF0197D1F688E991E00E940F058DE186
:1023D00094E00E940F0589E991E00E940F05B092F8
:1023E0007C04A0927B040E94EF0786E494E00E94A4
:1023F0000F0560ED77E080E090E00E94E5018FEC52
:1024000091E00E940F05B9CF91110C94E012803237
:1024100019F089508550C8F708950E944F1208F4AA
:1024200081E00895E89409C097FB3EF4909580956B
:10243000709561957F4F8F4F9F4F9923A9F0F92F8A
:1024400096E9BB279395F695879577956795B79508
:10245000F111F8CFFAF4BB0F11F460FF1BC06F5FEE
:102460007F4F8F4F9F4F16C0882311F096E911C000
:10247000772321F09EE8872F762F05C0662371F021
:1024800096E8862F70E060E02AF09A95660F771F35
:10249000881FDAF7880F9695879597F90895990F11
:1024A0000008550FAA0BE0E8FEEF16161706E8071E
:1024B000F907C0F012161306E407F50798F0621B3F
:1024C000730B840B950B39F40A2661F0232B242B14
:1024D000252B21F408950A2609F4A140A6958FEF33
:1024E000811D811D08950E9486120C94FA120E948B
:1024F000EC1238F00E94F31220F0952311F00C94A6
:10250000E3120C94E91211240C942E130E940B1365
:1025100070F3959FC1F3950F50E0551F629FF00136
:10252000729FBB27F00DB11D639FAA27F00DB11D4F
:10253000AA1F649F6627B00DA11D661F829F2227D8
:10254000B00DA11D621F739FB00DA11D621F839F5F
:10255000A00D611D221F749F3327A00D611D231F35
:10256000849F600D211D822F762F6A2F11249F5783
:1025700050409AF0F1F088234AF0EE0FFF1FBB1F86
:10258000661F771F881F91505040A9F79E3F510545
:1025900080F00C94E3120C942E135F3FE4F3983E0A
:1025A000D4F3869577956795B795F795E7959F5FEF
:1025B000C1F7FE2B880F911D9695879597F9089581
:1025C00099278827089597F99F6780E870E060E071
:1025D00008959FEF80EC089500240A9416161706BC
:1025E00018060906089500240A9412161306140604
:1025F00005060895092E0394000C11F4882352F067
:10260000BB0F40F4BF2B11F460FF04C06F5F7F4F1E
:102610008F4F9F4F089557FD9058440F551F59F005
:102620005F3F71F04795880F97FB991F61F09F3FBF
:1026300079F087950895121613061406551FF2CFE8
:102640004695F1DF08C0161617061806991FF1CF38
:1026500086957105610508940895E894BB2766275F
:102660007727CB0197F90895052E97FB1EF4009468
:102670000E944B1357FD07D00E949D1307FC03D007
:102680004EF40C944B1350954095309521953F4F47
:102690004F4F5F4F089590958095709561957F4F4E
:1026A0008F4F9F4F08950E94BF13A59F900DB49F19
:1026B000900DA49F800D911D11240895B7FF0C94D7
:1026C00053130E945313821B930B08952F923F9232
:1026D0004F925F926F927F928F929F92AF92BF9232
:1026E000CF92DF92EF92FF920F931F93CF93DF93DE
:1026F000CDB7DEB7CA1BDB0B0FB6F894DEBF0FBE3B
:10270000CDBF09942A88398848885F846E847D8487
:102710008C849B84AA84B984C884DF80EE80FD8089
:102720000C811B81AA81B981CE0FD11D0FB6F894FF
:10273000DEBF0FBECDBFED010895A1E21A2EAA1B88
:10274000BB1BFD010DC0AA1FBB1FEE1FFF1FA21761
:10275000B307E407F50720F0A21BB30BE40BF50B5E
:10276000661F771F881F991F1A9469F760957095E7
:10277000809590959B01AC01BD01CF010895A29F6A
:10278000B001B39FC001A39F700D811D1124911D45
:10279000B29F700D811D1124911D08959F939F7705
:1027A0000E9423150F90002042F49058A2EA2AEDCF
:1027B0003FE049E450E40E94F7130C94FA12505899
:1027C000BB27AA270E94F7130C94FA120E94EC125E
:1027D00038F00E94F31220F039F49F3F19F426F4E8
:1027E0000C94E9120EF4E095E7FB0C94E312E92F48
:1027F0000E940B1358F3BA176207730784079507F3
:1028000020F079F4A6F50C942D130EF4E0950B2E20
:10281000BA2FA02D0B01B90190010C01CA01A00132
:102820001124FF27591B99F0593F50F4503E68F18D
:102830001A16F040A22F232F342F4427585FF3CFCE
:10284000469537952795A795F0405395C9F77EF49F
:102850001F16BA0B620B730B840BBAF09150A1F0E8
:10286000FF0FBB1F661F771F881FC2F70EC0BA0F6E
:10287000621F731F841F48F4879577956795B795F6
:10288000F7959E3F08F0B0CF9395880F08F09927F1
:10289000EE0F979587950895DF93DD27B92FBF77C2
:1028A00040E85FE31616170648075B0718F4D92FB0
:1028B0000E946F159F938F937F936F930E94BD1516
:1028C000E8E6F0E00E9443150E94FA122F913F9132
:1028D0004F915F910E948612DD2351F09058A2EA39
:1028E0002AED3FE049EC5FE3D0785D270E94F713C3
:1028F000DF910C94FA120E948F140C94FA120E9429
:10290000F31258F00E94EC1240F029F45F3F29F0D6
:102910000C94E31251110C942E130C94E9120E94A2
:102920000B1368F39923B1F3552391F3951B550BC2
:10293000BB27AA2762177307840738F09F5F5F4F92
:10294000220F331F441FAA1FA9F335D00E2E3AF0D1
:10295000E0E832D091505040E695001CCAF72BD0E9
:10296000FE2F29D0660F771F881FBB1F261737073A
:102970004807AB07B0E809F0BB0B802DBF01FF276C
:1029800093585F4F3AF09E3F510578F00C94E31254
:102990000C942E135F3FE4F3983ED4F3869577951D
:1029A0006795B795F7959F5FC9F7880F911D969525
:1029B000879597F90895E1E0660F771F881FBB1F81
:1029C000621773078407BA0720F0621B730B840B2E
:1029D000BA0BEE1F88F7E09508950E94F4146894EE
:1029E000B1110C942E1308950E94131388F09F5771
:1029F00098F0B92F9927B751B0F0E1F0660F771F23
:102A0000881F991F1AF0BA95C9F714C0B13091F018
:102A10000E942D13B1E008950C942D13672F782F89
:102A20008827B85F39F0B93FCCF3869577956795DD
:102A3000B395D9F73EF490958095709561957F4F49
:102A40008F4F9F4F0895DF93CF931F930F938B0169
:102A5000EC01E5E9F0E00E9443150E94FA129801AA
:102A6000AE018B01EC0160E070E080E89FE30E9422
:102A7000DF130E947D159801AE010F911F91CF9138
:102A8000DF910C948612DF93CF931F930F93FF92E5
:102A9000EF92DF927B018C01689406C0DA2EEF0181
:102AA0000E948612FE01E894A591259135914591E9
:102AB0005591A6F3EF010E94F713FE019701A801BB
:102AC000DA9469F7DF90EF90FF900F911F91CF910B
:102AD000DF9108950E944F1208F48FEF08959B0133
:102AE000AC0160E070E080E89FE30C947B1419F483
:102AF00016F40C94E9120C94C6150E941313B8F343
:102B00009923C9F3B6F39F57550B87FF0E94D4153D
:102B10000024A0E640EA900180585695979528F445
:102B2000805C660F771F881F20F02617370748073D
:102B300030F4621B730B840B202931294A2BA69594
:102B400017940794202531254A2758F7660F771FD9
:102B5000881F20F026173707480730F4620B730BE5
:102B6000840B200D311D411DA09581F7B901842FE3
:102B70009158880F9695879508959B01AC010C9408
:102B800073120E944F12880B990B08959F3F31F0EA
:102B9000915020F4879577956795B795880F911D8B
:102BA0009695879597F9089591505040660F771F35
:102BB000881FD2F70895991B79E004C0991F9617D2
:102BC00008F0961B881F7A95C9F780950895EE0F37
:102BD000FF1F0590F491E02D09940F931F93CF935D
:102BE000DF938230910510F482E090E0E091880557
:102BF000F091890530E020E0B0E0A0E0309799F452
:102C00002115310509F44AC0281B390B2430310540
:102C1000D8F58A819B816115710589F1FB01938348
:102C20008283FE0111C040815181028113814817C6
:102C30005907E0F04817590799F4109761F0129678
:102C40000C93129713961C933296CF01DF91CF917C
:102C50001F910F9108950093880510938905F4CF73
:102C60002115310551F04217530738F0A901DB0156
:102C70009A01BD01DF01F801C1CFEF01F9CF9093B7
:102C8000890580938805CDCFFE01E20FF31F819364
:102C900091932250310939832883D7CF209186051B
:102CA00030918705232B41F42091020130910301DB
:102CB0003093870520938605209100013091010112
:102CC0002115310541F42DB73EB7409104015091D3
:102CD0000501241B350BE0918605F0918705E2176D
:102CE000F307A0F42E1B3F0B2817390778F0AC012F
:102CF0004E5F5F4F2417350748F04E0F5F1F50930C
:102D0000870540938605819391939FCFF0E0E0E0A3
:102D10009CCFCF93DF930097E9F0FC0132971382A9
:102D20001282A0918805B0918905ED0130E020E084
:102D30001097A1F420813181820F931F2091860585
:102D4000309187052817390709F061C0F09387058E
:102D5000E0938605DF91CF910895EA01CE17DF0752
:102D6000E8F54A815B819E0141155105B1F7E90102
:102D7000FB83EA8349915991C40FD51FEC17FD07D6
:102D800061F4808191810296840F951FE9019983F6
:102D90008883828193819B838A83F0E0E0E01296AE
:102DA0008D919C9113970097B9F52D913C911197B6
:102DB000CD010296820F931F2091860530918705E1
:102DC0002817390739F6309751F510928905109276
:102DD0008805B0938705A0938605BCCFD383C283B3
:102DE00040815181840F951FC817D90761F44E5F48
:102DF0005F4F88819981480F591F518340838A8191
:102E00009B81938382832115310509F0B0CFF09324
:102E10008905E09388059ECFFD01DC01C0CF1382B8
:102E20001282D7CFB0E0A0E0E8E1F7E10C9468139C
:102E30008C01009751F4CB010E94ED158C01C80163
:102E4000CDB7DEB7E0E10C948413FC01E60FF71F69
:102E50009C0122503109E217F30708F49DC0D90103
:102E6000CD91DC911197C617D70798F0C530D105E1
:102E700030F3CE0104978617970708F3C61BD70BCC
:102E80002297C193D1936D937C93CF010E948916B1
:102E9000D6CF5B01AC1ABD0A4C018C0E9D1EA091D1
:102EA0008805B0918905512C412CF12CE12C10970B
:102EB00031F580918605909187058815990509F06F
:102EC0005CC04616570608F058C0809100019091EA
:102ED0000101009741F48DB79EB7409104015091D4
:102EE0000501841B950BE817F90708F055C0F0930E
:102EF0008705E0938605F90171836083A0CF8D91EA
:102F00009C91119712966C90129713967C90139740
:102F1000A815B90559F56C0142E0C40ED11CCA14BC
:102F2000DB0420F1AC014A195B09DA01129615970E
:102F300080F06282738251834083D9016D937C93C8
:102F4000E114F10471F0D7011396FC93EE931297FC
:102F500076CF22968C0F9D1FF90191838083F30118
:102F6000EFCFF0938905E093880569CF481659069D
:102F700008F42C017D01D3019ACFCB010E94ED15FD
:102F80007C01009749F0AE01B8010E94CF17C8013B
:102F90000E948916870153CF10E000E050CFFB015B
:102FA000DC0102C001900D9241505040D8F70895C5
:102FB000FB01DC0101900D920020E1F70895AEE0E5
:102FC000B0E0E5EEF7E10C94761385E08C838B8915
:102FD0009C899A838983AE01495E5F4F6D897E89A2
:102FE000CE0101960E9483192E96E2E00C94921372
:102FF00020FD09C0FC0123FD05C022FF02C0738330
:10300000628351834083089544FD17C046FD1DC06F
:10301000DB01FC01AA0FBB1FEE1FFF1F1094D1F7AD
:103020006A0F7B1F8E1F9F1F660F771F881F991FB8
:10303000620F711D811D911D089533E0660F771F8A
:10304000881F991F3150D1F7F3CF34E0F7CF0F939A
:103050001F93CF93DF938C01C8010E94931AEC0158
:1030600097FD08C00E940412892BB1F7B801CE0168
:103070000E94CF1ACE01DF91CF911F910F91089539
:103080008F929F92AF92BF92EF92FF920F931F93F6
:10309000CF93DF938C01D62F7A01B22E0E94931A20
:1030A0009C0133272B32310529F02D323105A9F44B
:1030B0006894B7F8D15061F480E0DF91CF911F910F
:1030C0000F91FF90EF90BF90AF909F908F900895D9
:1030D000C8010E94931A97FDEFCFCB2DCD7F2B2DEA
:1030E0002073F9F48033E9F4AA24AA94AD0E89F090
:1030F000C8010E94931A97FD0CC0282F2F7D2835F8
:1031000061F4C264D25029F0C8010E94931A97FF5B
:1031100008C0812C912C54011BC0B6FE2BC0C2608C
:10312000DA2D812C912C540120ED280F283028F124
:10313000C4FD09C02A3008F1C6FF05C02F7D3FEE4F
:10314000320F3630C8F0B8010E94CF1AC1FFB4CF99
:10315000C7FF08C0B094A09490948094811C911CE7
:10316000A11CB11C2C2FB501A401C7010E94F817A6
:1031700081E0A3CFC261D4CF27504C2FC501B40149
:103180000E9404184B015C01C260D15009F3C801D0
:103190000E94931A97FFC8CFD9CFA0E2B0E0E3ED29
:1031A000F8E10C946B135C01962E7A01CE01019626
:1031B0006C0180E2F60111928A95E9F7F501B3817D
:1031C000890130E020E0712C812CA0E041E050E04A
:1031D000F801B3FD8591B3FF8191982F8F01811183
:1031E00007C010E000E0C801A096EDE00C94871342
:1031F0008E3519F42115310541F1A21713064CF44F
:103200008D3549F18D3229F4811006C088248394CC
:103210001DC0882009F464C0E92FE695E695E6957F
:10322000EC0DFD2DF11D892F8770BA0101C0660FCD
:103230008A95EAF78081682B6083791651F097159B
:1032400010F49F5FE9CF9150E7CFA1E02F5F3F4F90
:10325000BFCF812CFBCF882019F08E8180628E83B6
:10326000AA2359F0F6019E012F5D3F4F8081809582
:1032700080833196E217F307C9F788248394C50148
:103280000E94931A97FD16C0E82FE695E695E695FD
:10329000EC0DFD2DF11D208130E0AC01477055276C
:1032A00002C0359527954A95E2F720FD06C0B50185
:1032B0000E94CF1A882069F094CFE114F10429F01C
:1032C000F7018083C70101967C019A94812C9110AB
:1032D000D6CFE114F10409F486CFF701108283CF31
:1032E000E82FE695E695E695EC0DFD2DF11D982F5E
:1032F0009770BA0101C0660F9A95EAF79081692B21
:103300006083782EA3CFB0E0A0E0E9E8F9E10C9467
:1033100069136C01EB015A01FC0117821682512CD2
:10332000F601E380FE01E3FC8591E3FE8191182F15
:10333000EF018823E9F090E00E940412892B21F02C
:10334000C6010E942718ECCF153241F4FE01E3FCC0
:103350001591E3FE1191EF01153269F4C6010E9447
:10336000931A97FD8EC01817D9F2B6010E94CF1A92
:10337000852D90E08AC000E01A3231F4E3FC15910B
:10338000E3FE1191EF0101E0F12C20ED210F2A3035
:1033900048F101FF37C0FF2059F31836B1F11C3650
:1033A00009F43DC0112321F3612F70E08EEB90E012
:1033B0000E94881A892BE1F2912C812C00FD06C015
:1033C000F50180809180C50102965C011E3679F579
:1033D000F6014681578170E060E0202FC4010E9411
:1033E000F8179ECF02606F2D70E090E080E040E221
:1033F0000E940418F62EFE01E3FC1591E3FE1191E4
:10340000EF01C3CFFF24FA94C8CFFE01E3FC15916E
:10341000E3FE1191EF01183609F0C4CF0860046093
:10342000FE01E3FC1591E3FE1191EF01BBCF1336D2
:10343000C1F401FD02C0FF24F394C6010E94931A57
:1034400097FD1FC08114910429F0F4018083C40109
:1034500001964C01FA94F110F0CF00FD61CF539426
:103460005FCF1B35B9F49E01A4016F2DC6010E94E8
:10347000CD18EC01892B89F7F6018381807309F45B
:1034800077CF8FEF9FEF511073CFCDB7DEB7EFE05F
:103490000C948513C6010E94271897FDF2CF1F36A2
:1034A000A9F130F4143641F0193639F0006405C042
:1034B0001337B9F01537D1F70062202FA4016F2D13
:1034C000C6010E9440188111C8CFD6CF8114910443
:1034D00029F0F4016082C40101964C01FA94FF20A6
:1034E00071F0C6010E94931A3C0197FD08C00E942A
:1034F0000412892B59F3B601C3010E94CF1A81141B
:10350000910409F4AACFF4011082A7CF0061D5CFAE
:10351000FC010590061621F00020D9F7C00108959E
:103520003197CF010895CF93DF93EC012B8120FFDA
:103530001AC026FF0CC02F7B2B838E819F810196A2
:103540009F838E838A8190E0DF91CF91089522FF3F
:1035500018C0E881F9818081082E000C990B009732
:1035600029F420622B838FEF9FEFEECF3196F98302
:10357000E8832E813F812F5F3F4F3F832E83992722
:10358000E3CFEA85FB85099597FFF3CF2B81019661
:1035900021F080E2822B8B83E6CF80E1FBCFFB0121
:1035A000238120FF11C026FD0FC08F3F980771F0C7
:1035B00082832F7D20642383268137812150310926
:1035C00037832683992708958FEF9FEF0895F89406
:0235D000FFCF2B
:1035D20000008A05800000000000000002000200D6
:1035E20000000200020000000100010000000100D2
:1035F20002000200010000000000F8021802450269
:103602004503B6025402A8020D0A00207C20006E77
:10361200616E00696E66006F7666004D6F7665209A
:10362200746F2063656C6C5B005D5B005D20636F93
:103632006F7264696E6174652028002C20000A4450
:103642006F6C7068696E207468696E6B696E672E44
:103652002E2E00446F6C7068696E2063686F6F7302
:1036620065733A205B005D000A3D3D3D3D3D3D3DB9
:103672003D3D3D3D3D3D3D3D3D3D3D3D3D3D3D3D78
:103682003D3D3D3D3D3D3D3D3D3D3D3D3D3D3D3D68
:103692003D00446F6C7068696E20776F6E21000A7E
:1036A2004C6F6E672070726573732074776F20623F
:1036B2007574746F6E7320746F20737461727420EA
:1036C20061206E65772067616D6521002564202584
:1036D200640048756D616E20706C61796572206D51
:1036E200616B657320746865206D6F76653A205B47
:1036F200004F63637570696564212043686F6F735F
:103702006520616E6F7468657220706F7369746989
:103712006F6E0048756D616E20776F6E2100496E85
:1037220076616C696420696E7075742120526F77BE
:103732002F436F6C756D6E206D75737420626520FA
:10374200302D3200496E76616C696420666F726D4D
:1037520061742120496E70757420726F772D6E75B9
:103762006D20636F6C2D6E756D000A48756D616E0C
:1037720020506C7965722773207475726E2120490E
:103782006E70757420706F736974696F6E20287221
:103792006F7720636F6C756D6E29004472617721BB
:1037A200002020202020202020446F6C7068696E49
:1037B200205469632D5461632D546F652047616DF8
:1037C20065202020202020202000204C6F6E6720C2
:1037D2007072657373203220627574746F6E732019
:1037E200746F67657468657220746F207374617298
:1037F200742000204C6F6E672070726573732032E4
:1038020020627574746F6E7320746F20666F7263BA
:103812006520656E642067616D6520002048756DC6
:10382200616E20706C6179657220696E7075747357
:10383200207669612073657269616C206D6F6E69B3
:10384200746F722000466F726D61743A20526F7706
:1038520020696E64657828302D322920436F6C759B
:103862006D6E20696E64657828302D322900202023
:1038720020202020652E672E2020312031206973E0
:10388200207468652063656E7465722063656C6C74
:103892002020202020200020202020202020202046
:1038A200202020202047616D65207374617274733B
:1038B2002120202020202020202020202020200025
:1038C2000A4E65772067616D652120446F6C7068D0
:1038D200696E20676F657320666972737420285859
:1038E200292C2068756D616E20284F290020202028
:1038F200202020202020202047616D6520666F72E5
:10390200636520656E6465642021202020202020CC
:103912002020202020000A47616D6520656E6465C5
:04392200642100001C
:00000001FF
