:020000040000FA
:100000000C9493000C94BB000C94BB000C94BB00AC
:100010000C94BB000C94BB000C94BB000C94BB0074
:100020000C94BB000C94BB000C94BB000C94970E7A
:100030000C94BB000C94BB000C94BB000C94BB0054
:100040000C94F50D0C94BB000C94650E0C943F0EB3
:100050000C94BB000C94BB000C94BB000C94BB0034
:100060000C94BB000C94BB00084AD73B3BCE016EFE
:1000700084BCBFFDC12F3D6C74319ABD56833DDAFF
:100080003D00C77F11BED9E4BB4C3E916BAAAABE0E
:10009000000000803F072C7AA5BA6CC590DA3B932C
:1000A00065FC8BBC53F810FD3C5692834DBD879D7B
:1000B0003AB63DCBC9BF5BBE73DA0FC93F0063647C
:1000C000696E6F70737578585B0000000000240043
:1000D00027002A0000000000250028002B00000057
:1000E000000023002600290004040404040404047E
:1000F00002020202020203030303030301020408D3
:100100001020408001020408102001020408102081
:1001100000000008000201000003040700000000C6
:10012000000000006E0F11241FBECFEFD8E0DEBF2D
:10013000CDBF14E0A0E0B1E0E0EAF7E302C0059033
:100140000D92A635B107D9F725E0A6E5B4E001C0C8
:100150001D92AF38B207E1F710E0C3E9D0E004C068
:100160002197FE010E94C016C239D107C9F70E942B
:1001700025100C94CE1B0C940000ACE2B5E025E3F6
:1001800035E0FD018081803231F09181891303C017
:100190009281891771F133962E173F0799F72FE255
:1001A00035E08D91803251F012969C91129789130F
:1001B00005C015969C9115978917D9F02A173B070A
:1001C00081F790912C05903241F080913005981381
:1001D00004C080913405981761F080912E0580321B
:1001E00041F090913005891303C080913205981336
:1001F00080E20895833081F028F4813099F08230D4
:10020000A9F008958730A9F08830C9F08430B1F49E
:10021000809180008F7D03C0809180008F778093D4
:100220008000089584B58F7784BD089584B58F7D4F
:10023000FBCF8091B0008F778093B00008958091BC
:10024000B0008F7DF9CFCF93DF93282F30E0F901F5
:10025000E05FFE4F8491F901E450FF4FD491F90122
:10026000E851FF4FC491CC23A1F081110E94FA0004
:10027000EC2FF0E0EE0FFF1FE252FF4FA591B4917B
:10028000EC91ED2381E090E009F480E0DF91CF91E3
:10029000089580E090E0FACF1F93CF93DF93282F4B
:1002A00030E0F901E05FFE4F8491F901E450FF4F27
:1002B000D491F901E851FF4FC491CC23A9F0162F36
:1002C00081110E94FA00EC2FF0E0EE0FFF1FEC52BC
:1002D000FF4FA591B4918FB7F894EC91111108C01C
:1002E000D095DE23DC938FBFDF91CF911F910895CE
:1002F000DE2BF8CFCF93DF9390E0FC01E450FF4F6B
:10030000249188519F4FFC0184918823D1F090E083
:10031000880F991FFC01E653FF4FA591B491FC0192
:10032000EC52FF4FC591D491623071F49FB7F894AD
:100330003C91822F809583238C93E8812E2B2883F8
:100340009FBFDF91CF9108958FB7F894EC912E2B3A
:100350002C938FBFF6CF8E3008F08E50877080645C
:1003600080937C0080917A00806480937A008091F1
:100370007A0086FDFCCF80917800909179000895F5
:100380003FB7F8948091870490918804A0918904E4
:10039000B0918A0426B5A89B05C02F3F19F001969D
:1003A000A11DB11D3FBFBA2FA92F982F8827BC01CF
:1003B000CD01620F711D811D911D42E0660F771FF7
:1003C000881F991F4A95D1F708958F929F92AF92F7
:1003D000BF92CF92DF92EF92FF926B017C010E945D
:1003E000C0014B015C01C114D104E104F104B9F076
:1003F0000E94C001681979098A099B09683E734007
:100400008105910580F321E0C21AD108E108F108C5
:1004100088EE880E83E0981EA11CB11CE4CFFF90EB
:10042000EF90DF90CF90BF90AF909F908F90089506
:10043000AF92BF92CF92DF92EF92FF920F931F93F2
:10044000CF93DF936C017B018B01040F151FEB0130
:100450005E01AE18BF08C017D10759F06991D601E7
:10046000ED91FC910190F081E02DC6010995892B59
:1004700079F7C501DF91CF911F910F91FF90EF9018
:10048000DF90CF90BF90AF900895FC01538D448DC5
:10049000252F30E0842F90E0821B930B541710F02F
:1004A000CF96089501970895FC01918D828D98173C
:1004B00061F0A28DAE0FBF2FB11D5D968C91928D14
:1004C0009F5F9F73928F90E008958FEF9FEF089545
:1004D0002FB7F89480918B0490918C04A0918D0497
:1004E000B0918E042FBF8093970490939804A093AB
:1004F0009904B0939A048FE894E00E94540297FF05
:1005000026C02FB7F89480918B0490918C04A09111
:100510008D04B0918E042FBF4091970450919804A0
:100520006091990470919A04841B950BA60BB70BEC
:1005300040919304509194046091950470919604B5
:1005400084179507A607B707B0F28FEF9FEF0895BE
:10055000FC01918D828D981731F0828DE80FF11D8D
:10056000858D90E008958FEF9FEF0895FC01918DA8
:10057000228D892F90E0805C9F4F821B91098F73A1
:10058000992708958FE894E00E94B60221E0892B14
:1005900009F420E0822F089580E090E0892B29F073
:1005A0000E94C20281110C9400000895FC01A48DE8
:1005B000A80FB92FB11DA35ABF4F2C91848D90E085
:1005C00001968F739927848FA689B7892C93A08968
:1005D000B1898C91837080648C93938D848D9813F2
:1005E00006C00288F389E02D80818F7D8083089585
:1005F000EF92FF920F931F93CF93DF93EC0181E073
:10060000888F9B8D8C8D98131AC0E889F989808119
:1006100085FF15C09FB7F894EE89FF896083E8894C
:10062000F98980818370806480839FBF81E090E03E
:10063000DF91CF911F910F91FF90EF900895F62ECB
:100640000B8D10E00F5F1F4F0F731127E02E8C8D65
:100650008E110CC00FB607FCFACFE889F9898081AA
:1006600085FFF5CFCE010E94D602F1CFEB8DEC0FC6
:10067000FD2FF11DE35AFF4FF0829FB7F8940B8FC7
:10068000EA89FB8980818062CFCFCF93DF93EC0131
:10069000888D8823B9F0AA89BB89E889F9898C916A
:1006A00085FD03C0808186FD0DC00FB607FCF7CF26
:1006B0008C9185FFF2CF808185FFEDCFCE010E9426
:1006C000D602E9CFDF91CF910895CF92DF92EF92DA
:1006D000FF92CF93DF93EC01603282E07807CCF594
:1006E000653B710514F064EB70E0898128E830E027
:1006F000281B310987FD3395220F331F220F331F2B
:100700006901330FEE08FF088A8128E532E0281BD3
:10071000310987FD3395220F331F220F331F032E1C
:10072000000C440B550B2C193D094E095F09DB01E8
:1007300077FF02C0B0E0A0E00E94081424EB30E094
:1007400040E050E00E94DE13C20ED31EE41EF51EF0
:10075000B601E881EC3070F5298188E890E0821BD1
:10076000910927FD9395880F991F880F991F681786
:1007700079077CF02A8188E592E0821B910927FDA8
:100780009395880F991F880F991F681779070CF4A4
:10079000CB010297880F991F4FB7F8942E2F30E0A6
:1007A000F901EE0FFF1FE20FF31FE55AFB4F928393
:1007B00081834FBFDF91CF91FF90EF90DF90CF907B
:1007C00008951F93CF93DF93EC01162F88818C300F
:1007D00008F04EC061E0812F0E947A018881282FA5
:1007E00030E0F901EE0FFF1FE20FF31FE55AFB4F58
:1007F0001F736081607C612B608319821A822CE0F8
:10080000622F0E948516829FB001112430E020E003
:10081000AB01420F531FFA01EE0FFF1FE40FF51F4C
:10082000E55AFB4F908196FD16C02F5F3F4F2C304D
:10083000310571F781110FC01092800082E0809322
:1008400081001092850010928400B19A80916F000F
:10085000826080936F00E8818E2F90E0FC01EE0FA4
:10086000FF1FE80FF91FE55AFB4F808180648083EA
:100870008881DF91CF911F9108950F931F93CF939C
:10088000DF93EC0188810E94AB0100E012E0980147
:10089000281B390BC901181619067CF488810E949F
:1008A000AB01081B190B083211056CF08881DF9130
:1008B000CF911F910F910C94AB0188810E94AB01E5
:1008C000883292409CF780E092E0DF91CF911F91B7
:1008D0000F9108954F925F926F927F92AF92BF9265
:1008E000CF92DF92EF92FF920F931F93CF93DF93FC
:1008F000EC010D811E816017710734F00F8118859E
:10090000601771070CF48B018B819C81AA24AA9437
:10091000BA2C801791071CF4AA24A394B12C84EB61
:10092000482E512C612C712C6A01550FEE08FF08DE
:10093000AB81BC81A017B107D1F0AA0DBB1DBC8350
:10094000AB8320E437E00E94A516A30192010E9428
:10095000DE13CA01B901605E7D4F8F4F9F4FCE01FC
:100960000E946503C701B6010E94E501E1CFDF9156
:10097000CF911F910F91FF90EF90DF90CF90BF909C
:10098000AF907F906F905F904F900895CF93DF93DB
:10099000EC01AD81BE816A177B0734F0AF81B88569
:1009A0006A177B070CF4DB01BC83AB8320E437E0E0
:1009B0000E94A51624EB30E040E050E00E94DE13D8
:1009C000CA01B901605E7D4F8F4F9F4FCE01DF910D
:1009D000CF910C946503FC0101900020E9F7319759
:1009E000AF01481B590BBC018FE894E00C9418022E
:1009F0008F929F92AF92BF920F931F93CF93DF93EB
:100A0000CDB7DEB7A1970FB6F894DEBF0FBECDBF4E
:100A100019A2423008F44AE08E010F5D1F4F842E68
:100A2000912CB12CA12CA50194010E944714E62F12
:100A3000B901CA01EA30F4F4E05DD801EE938D010A
:100A4000232B242B252B79F790E080E0109719F0C9
:100A5000CD010E94EB04A1960FB6F894DEBF0FBE45
:100A6000CDBFDF91CF911F910F91BF90AF909F901D
:100A70008F900895E95CE1CFCF93DF930E94EB0460
:100A8000EC0188E391E00E94EB048C0F9D1FDF9145
:100A9000CF9108950C94EB040F931F93CF93DF93A2
:100AA00084EB91E00E943C05CCE2D5E08CE391E040
:100AB0000E944A0510E000E0FE01E00FF11F608196
:100AC0008FE894E00E94F8028BE391E00E944A05CF
:100AD0000F5F1F4F0330110579F788E391E00E9403
:100AE000EB0484EB91E00E943C05239685E0C5333E
:100AF000D807E1F6DF91CF911F910F9108954F92A2
:100B00005F926F927F928F929F92AF92BF92CF929D
:100B1000DF92EF92FF920F931F93CF93DF93CDB7A6
:100B2000DEB72E970FB6F894DEBF0FBECDBF4B01D8
:100B30005C0129013A01ED82FE820F831887DE866F
:100B4000CD86AC019B01C801B7010E9425150E940A
:100B5000F61421EE3EE245E652E40E941D13905841
:100B600029E432E944E250E40E941D1320E030E021
:100B700044EB52E40E948A1460933D0570933E0555
:100B800080933F059093400520E030E043E852E435
:100B9000C301B2010E9489146B017C0120E030E0A6
:100BA000A901C501B4010E94141618160CF418C24C
:100BB00020E030E0A901C501B4010E94B71287FD11
:100BC00018C219821A821B821C82A5019401C501D8
:100BD000B4010E941D132B013C012D813E814F81E8
:100BE0005885CA01B9010E941D139B01AC01C301C4
:100BF000B2010E948A140E9427162B013C016981D0
:100C00007A818B819C819058A30192010E941D13CF
:100C100020E030E040EE50E40E94891420E030E013
:100C200040E752E40E9489149B01AC01C701B60160
:100C30000E9425150E94F61421EE3EE245E652E49C
:100C40000E941D1369877A878B879C8720E030E09C
:100C5000A901C501B4010E94141618160CF4CEC1E6
:100C600020E030E0A901C501B4010E94B71287FD60
:100C7000CAC180E090E0DC01BC01CD019058A30125
:100C800092010E941D1320E030E040EE50E40E94EB
:100C9000891420E030E040E752E40E9489146D831B
:100CA0007E838F839887A7019601C701B6010E94B2
:100CB0001D1369837A838B839C832D813E814F81B1
:100CC0005885CA01B9010E941D1320E032E64EE8A2
:100CD00056E40E948A1429813A814B815C810E94EA
:100CE0008A1420E032E444EA56E40E9489146B013D
:100CF0007C0120E030E0A901C501B4010E94141676
:100D000018160CF485C120E030E0A901C501B4013A
:100D10000E94B71287FD81C180E090E0DC01BC0138
:100D2000CD019058A30192010E941D1320E030E0F4
:100D300040EE50E40E94891420E030E040E752E4A5
:100D40000E9489149B01AC010E941D1329813A81E4
:100D50004B815C810E948A140E94271620E030E0BB
:100D600047E853E40E941D139B01AC01C701B60183
:100D70000E9425150E94781421EE3EE245E652E4D9
:100D80000E941D139B01AC0160E070E08EED92E4C7
:100D90000E94891429853A854B855C850E948914B7
:100DA0006B017C01C0924105D0924205E09243055F
:100DB000F092440520E030E0A901C501B4010E9491
:100DC000141618160CF42EC120E030E0A901C5015C
:100DD000B4010E94B71287FD2AC180E090E0DC01D7
:100DE000BC01CD019058A30192010E941D1320E087
:100DF00030E046E852E40E9489149B01AC010E9455
:100E00001D139B01AC0160E072E589E197E40E944B
:100E1000891429813A814B815C810E94891420E0E8
:100E20003EEE48E157E40E9425150E9478142B01FC
:100E30003C0120E030E047EA52E4C701B6010E94DD
:100E40008A144B015C0121EE3EE245E652E4C30107
:100E5000B2010E941D139B01AC01C501B4010E94A7
:100E600089149B01AC0160E070E084E393E40E948C
:100E700089146093450570934605809347059093C8
:100E80004805A0903505B090360520E030E0A90176
:100E9000C701B6010E948A146B017C0120E030E09A
:100EA000A9010E94B71270E060E087FD10C020E049
:100EB00030E04AE253E4C701B6010E9414166AEA20
:100EC00070E0181624F0C701B6010E9497154D85F1
:100ED0005E85C5010E946A0464EF71E080E090E0E5
:100EE0000E94E501E0903905F0903A0520E030E0FD
:100EF000A90160913D0570913E0580913F0590915B
:100F000040050E948A144B015C0120E030E0A901F9
:100F10000E94B71270E060E087FD10C020E030E072
:100F200044E353E4C501B4010E94141664EB70E07D
:100F3000181624F0C501B4010E9497154D855E85F1
:100F4000C7010E946A0464EF71E080E090E00E94B3
:100F5000E501E0903705F090380520E030E0A90188
:100F6000609145057091460580914705909148052F
:100F70000E948A144B015C0120E030E0A9010E942C
:100F8000B71270E060E087FD10C020E030E04EEB6B
:100F900052E4C501B4010E9414166FE570E0181602
:100FA00024F0C501B4010E9497154D855E85C701E7
:100FB0002E960FB6F894DEBF0FBECDBFDF91CF9156
:100FC0001F910F91FF90EF90DF90CF90BF90AF9067
:100FD0009F908F907F906F905F904F900C946A04D9
:100FE00080E090E0A0E8BFE389839A83AB83BC8371
:100FF000ECCD80E090E0A0E8BFEBF6CF80E090E0A1
:10100000A0E8BFE339CE80E090E0A0E8BFEB34CEAB
:1010100080E090E0A0E8BFE382CE80E090E0A0E82E
:10102000BFEB7DCE80E090E0A0E8BFE3D9CE80E0CA
:1010300090E0A0E8BFEBD4CECF92DF92EF92FF9288
:101040000F931F938EE1C82ED12CE12CF12C08ECCC
:1010500012EC20E030E040EC50E460E070E08CE521
:1010600093EC0E947F051F910F91FF90EF90DF900E
:10107000CF9008954F925F926F927F928F929F923E
:10108000AF92BF92CF92DF92EF92FF920F931F9396
:10109000CF936B017C01742EAC019B010E946B16F7
:1010A000882399F08FE391E0CF911F910F91FF90EA
:1010B000EF90DF90CF90BF90AF909F908F907F90F8
:1010C0006F905F904F900C94EB0446015701E894A9
:1010D000B7F82FEF3FEF4FE75FE7C501B4010E947C
:1010E0006B1681110DC02FEF3FEF4FE75FE7C50192
:1010F000B4010E94B71218161CF483E491E0D4CF17
:101100002FEF3FEF4FE75FE4C701B6010E941416CF
:1011100018161CF487E491E0C7CF2FEF3FEF4FE79D
:101120005FECC701B6010E94B71287FDF3CF20E044
:1011300030E0A901C701B6010E94B71210E000E03B
:1011400087FF0AC06DE28FE894E00E94F8028C01EC
:10115000F7FAF094F7F8F094C0E060E070E080E017
:101160009FE37C1641F020E030E040E251E40E9431
:101170002515CF5FF6CFA70196010E948A142B0197
:101180003C010E949E154B015C014AE00E94F8045C
:101190007C01E00EF11ECC23C1F1C501B4010E9417
:1011A000BC129B01AC01C301B2010E9489144B0126
:1011B0005C016EE28FE894E00E94F802E80EF91EEE
:1011C000C15018F120E030E040E251E4C501B40123
:1011D0000E941D132B013C010E949E154B01B12C56
:1011E000A12C4AE0C501B4010E94F804E80EF91EE2
:1011F000C501B4010E94BC129B01AC01C301B20144
:101200000E9489144B015C01DBCFC701CF911F9174
:101210000F91FF90EF90DF90CF90BF90AF909F9095
:101220008F907F906F905F904F900895CF92DF9254
:10123000EF92FF92CF93DF936C01990FEE08FF08B6
:10124000F7FE19C06DE28FE894E00E94F802EC010D
:1012500066277727CB016C197D098E099F094AE023
:101260000E94F8048C0F9D1FDF91CF91FF90EF90AB
:10127000DF90CF9008954AE0C701B601DF91CF918A
:10128000FF90EF90DF90CF900C94F8044F925F9214
:101290006F927F928F929F92AF92BF92CF92DF9286
:1012A000EF92FF920F931F93CF93DF9300D000D064
:1012B00000D0CDB7DEB78C017E836D8329013A0162
:1012C000EE24E394F12CB701601B710B072E000C88
:1012D000880B990B0E94BE1220E030E040EF51E4F1
:1012E0000E941D1320E030E042E553E40E9489147F
:1012F0004B015C01A301920160E070E0CB010E9410
:1013000089142B013C01B7018D819E81681B790BEB
:10131000072E000C880B990B0E94BE1220E030E0D3
:1013200040EF51E40E941D139B01AC0160E070E0AE
:10133000CB010E94891469837A838B839C838BE41D
:1013400091E00E944A05C8010E94160989E591E0D2
:101350000E944A058D819E810E9416098CE591E0CC
:101360000E944A0542E0C501B4010E943A088BE69A
:1013700091E00E944A0542E0C301B2010E943A088E
:101380008BE691E00E944A0542E069817A818B8177
:101390009C810E943A0885ED93E00E943C0594E10F
:1013A000C92ED12CE980FA800B811C81A301920106
:1013B000C501B4010E947F0526960FB6F894DEBFE2
:1013C0000FBECDBFDF91CF911F910F91FF90EF9096
:1013D000DF90CF90BF90AF909F908F907F906F9055
:1013E0005F904F9008950F931F93CF93DF93EC017D
:1013F00088819981009759F02A813B812617370708
:1014000030F081E0DF91CF911F910F9108958B0112
:101410006F5F7F4F0E94EB17009759F09983888385
:101420001B830A832C813D81232B59F7FC011082F9
:10143000E8CF80E0E7CFFC0180819181009711F037
:101440000C94621708952F923F924F925F926F9281
:101450007F928F929F92AF92BF92CF92DF92EF9244
:10146000FF920F931F93CF93DF93CDB7DEB7A4976F
:101470000FB6F894DEBF0FBECDBF2CE2A22E25E042
:10148000B22E6501912C812C08E57601712C612C1E
:10149000F7011081103209F0CBC000830E94BD001B
:1014A000883509F0C3C0F401EE0FFF1FE80DF91DE8
:1014B000E45DFA4FE60DF71D10838EE691E00E9481
:1014C0003C0568EE73E080E090E00E94E50183E86F
:1014D00091E00E944A05C4010E94160989E591E045
:1014E0000E944A05C3010E94160986E991E00E9404
:1014F0003C0569E170E080913B0590913C050E94BC
:10150000C60464EF71E080E090E00E94E5017EE1B6
:10151000C72ED12CE12CF12C08EC12EC20E030E0AD
:1015200040EC51EC60E070E08CE593EC0E947F05AC
:1015300070E060E080913B0590913C050E94C604FC
:1015400064EF71E080E090E00E94E50120E030E08F
:1015500048EC51ECB301C4010E94460964EF71E00C
:1015600080E090E00E94E50120E030E040EA51E4B4
:10157000B301C4010E94460964EF71E080E090E08D
:101580000E94E50169E170E080913B0590913C0586
:101590000E94C60464EF71E080E090E00E94E501E3
:1015A00020E030E048EC51ECB301C4010E94460950
:1015B0000E941C0883E08816910490F493E0691659
:1015C000710470F4F401EE0FFF1FE80DF91DE45DE6
:1015D000FA4FE60DF71D8081803211F488E5808393
:1015E0000E944C050E94BD00ECE2F5E0883509F050
:1015F000CFC088E991E00E943C0582EC91E00E9416
:101600003C0589E991E00E943C0582E090E09093DE
:1016100081048093800460ED77E080E090E00E9498
:10162000E5018FEC91E00E943C058EC1F70110832B
:10163000FFEF6F1A7F0A2FEFE21AF20A33E0631608
:10164000710409F025CF8FEF881A980A93E0C90E2C
:10165000D11CE3E08E16910409F017CF9CE2C92E4D
:1016600095E0D92E912C812C0FE47601712C612C00
:10167000F7011081103241F400830E94BD008F34C5
:1016800009F411CFF7011083FFEF6F1A7F0A2FEFD4
:10169000E21AF20A33E06316710451F78FEF881AE9
:1016A000980A93E0C90ED11CE3E08E169104E9F686
:1016B00080913005803209F45DC080E1E6E0F1E020
:1016C000DE01519601900D928A95E1F7DE01519667
:1016D0009E012F5D3F4FCD018D909C9011971296EA
:1016E0006D907C901397F401EE0FFF1FE80DF91D2C
:1016F000E45DFA4FE60DF71D4081403209F4DDCE7E
:1017000014962A173B0741F720E1E6E1F1E0DE01FC
:10171000119601900D922A95E1F7FE013196808095
:10172000918062807380D401AA0FBB1FA80DB91DE0
:10173000A45DBA4FA60DB71D2C91203209F4BDCE81
:1017400034968E179F0759F7ECE2F5E0912C812C27
:1017500080818032B1F08181803279F08281803263
:1017600099F02FEF821A920A339633E08316910490
:1017700079F7A3CE88248394912C66246394712CEA
:101780009CCE712C612C99CEF2E06F2E712C95CEEF
:101790008081803291F08181803279F08281803243
:1017A00061F0339625E0E533F20791F788E991E09F
:1017B0000E943C0584E093E022CF8FE894E00E94F1
:1017C000B602892B29F08FE894E00E945402F5CFED
:1017D0008CEF91E00E943C0588248A94982C2E017D
:1017E00031E2430E511C1E0183E2280E311C9CA2E3
:1017F0008BA29AA289A28FE894E00E94B6021816E2
:1018000019060CF076C11A8A198A1C8A1B8A1E8A4C
:101810001D8A70E060E0CE0141960E94F30929899B
:101820003A8981112EC02115310519F0C9010E9494
:1018300062171A8A198A1E8A1D8A1C8A1B8A0E94AC
:10184000680297FD26C08A30910519F189831A82B2
:101850000D891E890F5F1F4FB801CE0141960E946E
:10186000F309882361F329893A898D899E89BE010C
:101870006F5F7F4F820F931F0E94B1181E8B0D8BDD
:10188000DECF1E8A1D8A6AE371E0C9010E94B11889
:10189000D6CF1A8219821C821B821E821D8264E0AE
:1018A00070E0CE0101960E94F30929813A818111ED
:1018B00064C02115310519F0C9010E9462171A820E
:1018C00019821E821D821C821B824D815E818D8940
:1018D0009E898417950770F089899A89009751F03D
:1018E00069817A816115710529F00E94B81811E0AB
:1018F000892B09F010E0CE0101960E941B0A1123EA
:1019000009F445C0E2E0F0E0F0938104E093800444
:101910000E941C0882E392E00E943C0560ED77E0A3
:1019200080E090E00E94E5018FEC91E00E943C0590
:10193000109258041092570411E0CE0141960E9473
:101940001B0A112309F4F0C0A4960FB6F894DEBF69
:101950000FBECDBFDF91CF911F910F91FF90EF9000
:10196000DF90CF90BF90AF909F908F907F906F90BF
:101970005F904F903F902F90089584E090E09E8379
:101980008D836DE272E0C9010E94B1189ECFC988B3
:10199000DA88C114D10431F00D891E897601011550
:1019A000110509F55F924F923F922F922FE332E09B
:1019B0003F932F938A898F9389898F930E94C618AA
:1019C0000FB6F894DEBF0FBECDBF029709F441C039
:1019D00085E492E00E943C058AE391E00E943C0588
:1019E00010E0ABCF73013701FFEF6F1A7F0AF701E9
:1019F0008081082E000C990B0E94AE12892B91F762
:101A0000015011090C0D1D1DF8018081082E000CDC
:101A1000990B0E94AE12892B31F00E151F0518F09C
:101A200001501109F1CF0F5F1F4FA8014E195F0937
:101A30005E8B4D8BCE14DF0420F4B701C6010E94EB
:101A4000A818E989FA898D899E89E80FF91F108203
:101A5000A9CF8BA19CA1039720F489A19AA10397F8
:101A600018F08BE692E0BACFCE0141960E941B0A95
:101A70002BA13CA12330310508F0A9C089A19AA16E
:101A80008330910508F0A3C0F901EE0FFF1FE20FAC
:101A9000F31FE45DFA4FE80FF91F8081803209F0EF
:101AA00096C08FE4808388EB92E00E944A058BA168
:101AB0009CA10E94160989E591E00E944A0589A12E
:101AC0009AA10E94160986E991E00E943C050E94B5
:101AD0004C0510925804109257040E94BD008F3498
:101AE00009F062C088E991E00E943C0587ED92E030
:101AF00086CD80914D050E94230121E0009709F0D9
:101B000020E020935305892B19F58091570490917B
:101B10005804893091057CF081E992E00E943C05EF
:101B2000109258041092570468EC70E080E090E046
:101B30000E94E5015CCE63E070E00E9491167CA3F8
:101B40006BA39AA389A3109258041092570490CFC4
:101B5000809158050E94230111E0009709F010E0E0
:101B600010935E05892BE9F480915604811119C008
:101B70008091570490915804019690935804809353
:101B8000570480EB92E00E944A058091570490919F
:101B900058040E94160962E370E080E090E00E9421
:101BA000E50110935604C0CFF50180818032A1F089
:101BB0008181803289F08281803271F0F3E0AF0E52
:101BC000B11C25E3A21625E0B20671F7EFCD82EE37
:101BD00092E00E943C05A8CF68EE73E080E090E0C0
:101BE0000E94E5010E94230AAFCE1F920F920FB60A
:101BF0000F9211242F933F938F939F93AF93BF9393
:101C000080918B0490918C04A0918D04B0918E04EE
:101C10003091860423E0230F2D3758F50196A11D3E
:101C2000B11D2093860480938B0490938C04A09321
:101C30008D04B0938E048091870490918804A091C4
:101C40008904B0918A040196A11DB11D8093870477
:101C500090938804A0938904B0938A04BF91AF91B4
:101C60009F918F913F912F910F900FBE0F901F90DA
:101C7000189526E8230F0296A11DB11DD2CF1F9201
:101C80000F920FB60F9211242F933F934F935F93B0
:101C90006F937F938F939F93AF93BF93EF93FF9334
:101CA0008FE894E00E94D602FF91EF91BF91AF912F
:101CB0009F918F917F916F915F914F913F912F9164
:101CC0000F900FBE0F901F9018951F920F920FB696
:101CD0000F9211242F938F939F93EF93FF93E09193
:101CE0009F04F091A0048081E091A504F091A604E6
:101CF00082FD1BC090818091A8048F5F8F7320911B
:101D0000A904821741F0E091A804F0E0E157FB4FED
:101D1000958F8093A804FF91EF919F918F912F91C0
:101D20000F900FBE0F901F9018958081F4CF1F92D7
:101D30000F920FB60F9211242F933F934F935F93FF
:101D40006F937F938F939F93AF93BF93CF93DF93C3
:101D5000EF93FF9380915904C0915A04D0E087FF1C
:101D600024C01092850010928400809159048F5FE6
:101D70008093590480915904082E000C990B8C17FC
:101D80009D0724F4809159048C30C4F18091840023
:101D900090918500049680349C4908F47AC0809123
:101DA000840090918500049676C080915904082E95
:101DB000000C990B8C179D07C4F6E09159048E2FE7
:101DC000EE0F990BFC01EE0FFF1FE80FF91FE55A0C
:101DD000FB4F808186FFC9CFE09159048E2FEE0F13
:101DE000990BFC01EE0FFF1FE80FF91FE55AFB4F9F
:101DF000808160E08F730E944C01B7CF20918400F6
:101E000030918500E09159048E2FEE0F990BFC0163
:101E1000EE0FFF1FE80FF91FE55AFB4F81819281FA
:101E2000820F931F9093890080938800E09159045A
:101E30008E2FEE0F990BFC01EE0FFF1FE80FF91F1D
:101E4000E55AFB4F808186FF11C0E09159048E2F27
:101E5000EE0F990BFC01EE0FFF1FE80FF91FE55A7B
:101E6000FB4F808161E08F730E944C01FF91EF91E5
:101E7000DF91CF91BF91AF919F918F917F916F91A2
:101E80005F914F913F912F910F900FBE0F901F9038
:101E9000189580E49CE990938900809388008FEFE7
:101EA00080935904E3CFFC0190915A049C3098F43C
:101EB00081E0890F80935A049083892F90E0FC0180
:101EC000EE0FFF1FE80FF91FE55AFB4F88EB9BE071
:101ED0009283818308958FEF80830895EF92FF921C
:101EE0000F931F93CF93DF93EFE8F4E013821282F6
:101EF00088EE93E0A0E0B0E084839583A683B78367
:101F00008AE291E09183808385EC90E095878487D5
:101F100084EC90E09787868780EC90E0918B808BB3
:101F200081EC90E0938B828B82EC90E0958B848B9C
:101F300086EC90E0978B868B118E128E138E148E0A
:101F400080E895E00E94530F80E8E82E85E0F82EA7
:101F5000F70114821382168215828AEA90E0908734
:101F6000878385E795E00E94530F05E715E0F801A8
:101F700014821382168215828FE590E09087878302
:101F80008AE695E00E94530FCAE6D5E01C821B82C8
:101F90001E821D8284EB90E098878F838FE595E009
:101FA0000E94530FAFE5B5E014961C921E92139752
:101FB00016961C921E92159789E190E018969C93B4
:101FC0008E931797E4E5F5E08EE090E091838083AF
:101FD0008FE090E09383828382E090E09583848316
:101FE00016821782108611861286E9E4F5E080E1F8
:101FF00090E09183808381E190E09383828383E00A
:1020000090E095838483168217821086118612864B
:10201000E5E3F5E0F182E08213830283D583C48394
:10202000B783A683ECE2F5E080E28083818382833C
:10203000838384838583868387838087DF91CF91A1
:102040001F910F91FF90EF900895789484B582606E
:1020500084BD84B5816084BD85B5826085BD85B54C
:10206000816085BD80916E00816080936E001092CA
:102070008100809181008260809381008091810045
:1020800081608093810080918000816080938000D6
:102090008091B10084608093B1008091B000816034
:1020A0008093B00080917A00846080937A00809160
:1020B0007A00826080937A0080917A0081608093B8
:1020C0007A0080917A00806880937A001092C10033
:1020D000E0919F04F091A00482E08083E0919B0452
:1020E000F0919C041082E0919D04F0919E048FEC8D
:1020F00080831092A704E091A304F091A40486E0E9
:102100008083E091A104F091A204808180618083AA
:10211000E091A104F091A204808188608083E09125
:10212000A104F091A204808180688083E091A104E1
:10213000F091A20480818F7D808388E090E090936D
:102140008A058093890568E070E080E895E00E9448
:10215000E10369E470E080E895E00E94C60489E04C
:1021600090E090937F0580937E0569E070E085E7BD
:1021700095E00E94E10367E670E085E795E00E9444
:10218000C6048AE090E090937405809373056AE03A
:1021900070E08AE695E00E94E1036BE170E08AE678
:1021A00095E00E94C6048BE090E0909369058093CF
:1021B00068056BE070E08FE595E00E94E10370E058
:1021C00060E08FE595E00E94C60462E080915805CA
:1021D0000E947A0162E080914D050E947A010E947E
:1021E0001C0889E991E00E943C058AE093E00E9486
:1021F0003C0589E991E00E943C0583E393E00E945D
:102200003C058CE593E00E943C0585E893E00E9444
:102210003C058EEA93E00E943C0587ED93E00E9426
:102220003C0589E991E00E943C0588248A9463E09A
:10223000962EA12CB12C00E010E0D1E0EE24E39426
:10224000F12CC0E28FB7F89440908B0450908C042E
:1022500060908D0470908E048FBF409282045092E3
:10226000830460928404709285048091800490912C
:102270008104019709F484C084E595E00E943D043F
:10228000BC01990F880B990B23E0660F771F881FFD
:10229000991F2A95D1F7A50194010E94DE132450BD
:1022A0003109410951096091830570918405620FDC
:1022B000731F80E895E00E94C60486E595E00E94C1
:1022C0003D04BC01990F880B990B33E0660F771F13
:1022D000881F991F3A95D1F7A50194010E94DE133A
:1022E00024503109410951096091780570917905AF
:1022F000620F731F85E795E00E94C60489E495E0AC
:102300000E943D04BC01990F880B990B43E0660FB6
:10231000771F881F991F4A95D1F7A50194010E9444
:10232000DE13245031094109510960916D05709106
:102330006E05620F731F8AE695E00E94C6048BE467
:1023400095E00E943D04BC01990F880B990B54E065
:10235000660F771F881F991F5A95D1F7A501940121
:102360000E94DE132850310941095109609162052C
:1023700070916305620F731F8FE595E00E94C6049C
:10238000809158050E94230121E0009709F020E088
:1023900020935E05892B09F0CFC080915A0590915A
:1023A0005B05A0915C05B0915D05892B8A2B8B2B79
:1023B00041F440925A0550925B0560925C05709220
:1023C0005D0580914D050E94230121E0009709F0F1
:1023D00020E020935305009709F0B7C040914F05C6
:1023E000509150056091510570915205452B462B37
:1023F000472B41F440924F05509250056092510591
:102400007092520520915E05211104C0892B11F0B4
:1024100010927F0480917F0481117CC02FB7F894C3
:1024200080918B0490918C04A0918D04B0918E04C6
:102430002FBF8093820490938304A0938404B0936D
:10244000850420915E05222309F464C02091530580
:10245000222309F45FC040915A0550915B056091B9
:102460005C0570915D052C013D01441A550A660A10
:10247000770AB301A2014C3D55406105710508F48E
:1024800049C040914F0550915005609151057091A0
:102490005205841B950BA60BB70B8C3D9540A105EF
:1024A000B105C0F1D0937F048091800490918104A4
:1024B000019781F188E991E00E943C0580E094E079
:1024C0000E943C0589E991E00E943C05F09281045C
:1024D000E0928004C0932C05C0932D05C0932E0577
:1024E000C0932F05C0933005C0933105C0933205CA
:1024F000C0933305C093340589E294E00E943C0503
:102500000E944C0568EE73E080E090E00E94E501D7
:102510000E94230A64E670E080E090E00E94E501FA
:102520000115110509F48ECE0E94C202882309F418
:1025300089CE0E94000086CE10925A0510925B054B
:1025400010925C0510925D053CCF10924F051092E1
:102550005005109251051092520554CF91110C94D0
:102560008A13803219F089508550C8F708950E9467
:10257000F91208F481E00895E89409C097FB3EF44D
:1025800090958095709561957F4F8F4F9F4F9923C0
:10259000A9F0F92F96E9BB279395F695879577953E
:1025A0006795B795F111F8CFFAF4BB0F11F460FFFE
:1025B0001BC06F5F7F4F8F4F9F4F16C0882311F056
:1025C00096E911C0772321F09EE8872F762F05C06A
:1025D000662371F096E8862F70E060E02AF09A9505
:1025E000660F771F881FDAF7880F9695879597F9FA
:1025F0000895990F0008550FAA0BE0E8FEEF161694
:102600001706E807F907C0F012161306E407F507E6
:1026100098F0621B730B840B950B39F40A2661F05A
:10262000232B242B252B21F408950A2609F4A140FD
:10263000A6958FEF811D811D08950E9430130C9483
:10264000A4130E94961338F00E949D1320F0952346
:1026500011F00C948D130C94931311240C94D81333
:102660000E94B51370F3959FC1F3950F50E0551F6D
:10267000629FF001729FBB27F00DB11D639FAA27D7
:10268000F00DB11DAA1F649F6627B00DA11D661F26
:10269000829F2227B00DA11D621F739FB00DA11D47
:1026A000621F839FA00D611D221F749F3327A00D01
:1026B000611D231F849F600D211D822F762F6A2F9D
:1026C00011249F5750409AF0F1F088234AF0EE0F02
:1026D000FF1FBB1F661F771F881F91505040A9F72F
:1026E0009E3F510580F00C948D130C94D8135F3FDE
:1026F000E4F3983ED4F3869577956795B795F7956B
:10270000E7959F5FC1F7FE2B880F911D96958795E2
:1027100097F9089599278827089597F99F6780E882
:1027200070E060E008959FEF80EC089500240A9423
:102730001616170618060906089500240A9412169C
:102740001306140605060895092E0394000C11F4CF
:10275000882352F0BB0F40F4BF2B11F460FF04C07C
:102760006F5F7F4F8F4F9F4F089557FD9058440FD5
:10277000551F59F05F3F71F04795880F97FB991FE0
:1027800061F09F3F79F0879508951216130614069D
:10279000551FF2CF4695F1DF08C01616170618062A
:1027A000991FF1CF86957105610508940895E89405
:1027B000BB2766277727CB0197F90895052E97FB4E
:1027C0001EF400940E94F51357FD07D00E94471491
:1027D00007FC03D04EF40C94F513509540953095BA
:1027E00021953F4F4F4F5F4F08959095809570957D
:1027F00061957F4F8F4F9F4F08950E946914A59F49
:10280000900DB49F900DA49F800D911D11240895EB
:10281000B7FF0C94FD130E94FD13821B930B0895C8
:102820002F923F924F925F926F927F928F929F92E0
:10283000AF92BF92CF92DF92EF92FF920F931F93CE
:10284000CF93DF93CDB7DEB7CA1BDB0B0FB6F8947F
:10285000DEBF0FBECDBF09942A88398848885F84BF
:102860006E847D848C849B84AA84B984C884DF8030
:10287000EE80FD800C811B81AA81B981CE0FD11D14
:102880000FB6F894DEBF0FBECDBFED010895A1E2F3
:102890001A2EAA1BBB1BFD010DC0AA1FBB1FEE1FDA
:1028A000FF1FA217B307E407F50720F0A21BB30B25
:1028B000E40BF50B661F771F881F991F1A9469F7A1
:1028C00060957095809590959B01AC01BD01CF01FD
:1028D0000895A29FB001B39FC001A39F700D811DF9
:1028E0001124911DB29F700D811D1124911D089519
:1028F0009F939F770E94CD150F90002042F490582F
:10290000A2EA2AED3FE049E450E40E94A1140C94AD
:10291000A4135058BB27AA270E94A1140C94A413F7
:102920000E94961338F00E949D1320F039F49F3FC7
:1029300019F426F40C9493130EF4E095E7FB0C9431
:102940008D13E92F0E94B51358F3BA176207730766
:102950008407950720F079F4A6F50C94D7130EF4AC
:10296000E0950B2EBA2FA02D0B01B90190010C019F
:10297000CA01A0011124FF27591B99F0593F50F4B7
:10298000503E68F11A16F040A22F232F342F44270F
:10299000585FF3CF469537952795A795F040539507
:1029A000C9F77EF41F16BA0B620B730B840BBAF0D7
:1029B0009150A1F0FF0FBB1F661F771F881FC2F742
:1029C0000EC0BA0F621F731F841F48F48795779556
:1029D0006795B795F7959E3F08F0B0CF9395880F10
:1029E00008F09927EE0F979587950895DF93DD27D7
:1029F000B92FBF7740E85FE31616170648075B0755
:102A000018F4D92F0E9419169F938F937F936F9379
:102A10000E946716E8E6F0E00E94ED150E94A413FC
:102A20002F913F914F915F910E943013DD2351F020
:102A30009058A2EA2AED3FE049EC5FE3D0785D27A9
:102A40000E94A114DF910C94A4130E9439150C94D8
:102A5000A4130E949D1358F00E94961340F029F48D
:102A60005F3F29F00C948D1351110C94D8130C94E2
:102A700093130E94B51368F39923B1F3552391F38F
:102A8000951B550BBB27AA2762177307840738F0DD
:102A90009F5F5F4F220F331F441FAA1FA9F335D03A
:102AA0000E2E3AF0E0E832D091505040E695001CEE
:102AB000CAF72BD0FE2F29D0660F771F881FBB1FA8
:102AC000261737074807AB07B0E809F0BB0B802D86
:102AD000BF01FF2793585F4F3AF09E3F510578F0B2
:102AE0000C948D130C94D8135F3FE4F3983ED4F309
:102AF000869577956795B795F7959F5FC9F7880F86
:102B0000911D9695879597F90895E1E0660F771FD7
:102B1000881FBB1F621773078407BA0720F0621B68
:102B2000730B840BBA0BEE1F88F7E09508950E9493
:102B30009E156894B1110C94D81308950E94BD138A
:102B400088F09F5798F0B92F9927B751B0F0E1F06E
:102B5000660F771F881F991F1AF0BA95C9F714C01E
:102B6000B13091F00E94D713B1E008950C94D713BF
:102B7000672F782F8827B85F39F0B93FCCF3869557
:102B800077956795B395D9F73EF4909580957095B4
:102B900061957F4F8F4F9F4F0895DF93CF931F9382
:102BA0000F938B01EC01E5E9F0E00E94ED150E9426
:102BB000A4139801AE018B01EC0160E070E080E8A5
:102BC0009FE30E9489140E9427169801AE010F917D
:102BD0001F91CF91DF910C943013DF93CF931F930C
:102BE0000F93FF92EF92DF927B018C01689406C0F5
:102BF000DA2EEF010E943013FE01E894A591259191
:102C0000359145915591A6F3EF010E94A114FE0163
:102C10009701A801DA9469F7DF90EF90FF900F9188
:102C20001F91CF91DF9108950E94F91208F48FEF60
:102C300008959B01AC0160E070E080E89FE30C9494
:102C4000251519F416F40C9493130C9470160E9425
:102C5000BD13B8F39923C9F3B6F39F57550B87FFFC
:102C60000E947E160024A0E640EA90018058569506
:102C7000979528F4805C660F771F881F20F0261731
:102C80003707480730F4621B730B840B2029312966
:102C90004A2BA69517940794202531254A2758F7E3
:102CA000660F771F881F20F026173707480730F474
:102CB000620B730B840B200D311D411DA09581F714
:102CC000B901842F9158880F9695879508959B0197
:102CD000AC010C941D130E94F912880B990B0895F6
:102CE0009F3F31F0915020F4879577956795B79580
:102CF000880F911D9695879597F9089591505040AA
:102D0000660F771F881FD2F70895991B79E004C0DA
:102D1000991F961708F0961B881F7A95C9F780951A
:102D2000089597FB072E16F4009407D077FD09D07D
:102D30000E94AC1607FC05D03EF4909581959F4FFC
:102D40000895709561957F4F08950E946914B7FFAB
:102D50000895821B930B0895AA1BBB1B51E107C06A
:102D6000AA1FBB1FA617B70710F0A61BB70B881F1B
:102D7000991F5A95A9F780959095BC01CD010895AA
:102D8000EE0FFF1F0590F491E02D09940F931F9310
:102D9000CF93DF938230910510F482E090E0E091D0
:102DA0008D05F0918E0530E020E0B0E0A0E0309796
:102DB00099F42115310509F44AC0281B390B243038
:102DC0003105D8F58A819B816115710589F1FB0177
:102DD00093838283FE0111C040815181028113815E
:102DE00048175907E0F04817590799F4109761F010
:102DF00012960C93129713961C933296CF01DF9183
:102E0000CF911F910F91089500938D0510938E051A
:102E1000F4CF2115310551F04217530738F0A901BD
:102E2000DB019A01BD01DF01F801C1CFEF01F9CF4C
:102E300090938E0580938D05CDCFFE01E20FF31F99
:102E4000819391932250310939832883D7CF2091E0
:102E50008B0530918C05232B41F420910201309198
:102E6000030130938C0520938B0520910001309154
:102E700001012115310541F42DB73EB74091040100
:102E800050910501241B350BE0918B05F0918C05C9
:102E9000E217F307A0F42E1B3F0B2817390778F031
:102EA000AC014E5F5F4F2417350748F04E0F5F1F90
:102EB00050938C0540938B05819391939FCFF0E0C5
:102EC000E0E09CCFCF93DF930097E9F0FC013297CD
:102ED00013821282A0918D05B0918E05ED0130E034
:102EE00020E01097A1F420813181820F931F20915F
:102EF0008B0530918C052817390709F061C0F093D4
:102F00008C05E0938B05DF91CF910895EA01CE17F0
:102F1000DF07E8F54A815B819E0141155105B1F754
:102F2000E901FB83EA8349915991C40FD51FEC173E
:102F3000FD0761F4808191810296840F951FE9015C
:102F400099838883828193819B838A83F0E0E0E088
:102F500012968D919C9113970097B9F52D913C9104
:102F60001197CD010296820F931F20918B0530910E
:102F70008C052817390739F6309751F510928E05D0
:102F800010928D05B0938C05A0938B05BCCFD38395
:102F9000C28340815181840F951FC817D90761F4FE
:102FA0004E5F5F4F88819981480F591F518340833D
:102FB0008A819B81938382832115310509F0B0CFEB
:102FC000F0938E05E0938D059ECFFD01DC01C0CF0F
:102FD00013821282D7CFB0E0A0E0E1EFF7E10C94CA
:102FE00012148C01009751F4CB010E94C6168C017B
:102FF000C801CDB7DEB7E0E10C942E14FC01E60F5A
:10300000F71F9C0122503109E217F30708F49DC015
:10301000D901CD91DC911197C617D70798F0C5302B
:10302000D10530F3CE0104978617970708F3C61B26
:10303000D70B2297C193D1936D937C93CF010E94BC
:103040006217D6CF5B01AC1ABD0A4C018C0E9D1ED7
:10305000A0918D05B0918E05512C412CF12CE12CC5
:10306000109731F580918B0590918C058815990505
:1030700009F05CC04616570608F058C08091000160
:1030800090910101009741F48DB79EB740910401E2
:1030900050910501841B950BE817F90708F055C0FE
:1030A000F0938C05E0938B05F90171836083A0CFC9
:1030B0008D919C91119712966C90129713967C901B
:1030C0001397A815B90559F56C0142E0C40ED11C3F
:1030D000CA14DB0420F1AC014A195B09DA0112962B
:1030E000159780F06282738251834083D9016D937A
:1030F0007C93E114F10471F0D7011396FC93EE93E5
:10310000129776CF22968C0F9D1FF90191838083B1
:10311000F301EFCFF0938E05E0938D0569CF48164C
:10312000590608F42C017D01D3019ACFCB010E94EE
:10313000C6167C01009749F0AE01B8010E94A8189C
:10314000C8010E946217870153CF10E000E050CF02
:10315000FB01DC0102C001900D9241505040D8F7B4
:103160000895FB01DC0101900D920020E1F7089524
:10317000FB01DC014150504030F08D9101908019ED
:1031800019F40020B9F7881B990B0895AEE0B0E060
:10319000ECECF8E10C94201485E08C838B899C89FD
:1031A0009A838983AE01495E5F4F6D897E89CE0126
:1031B00001960E946A1A2E96E2E00C943C1420FDBF
:1031C00009C0FC0123FD05C022FF02C07383628396
:1031D00051834083089544FD17C046FD1DC0DB01A7
:1031E000FC01AA0FBB1FEE1FFF1F1094D1F76A0F3F
:1031F0007B1F8E1F9F1F660F771F881F991F620FEF
:10320000711D811D911D089533E0660F771F881F82
:10321000991F3150D1F7F3CF34E0F7CF0F931F93BD
:10322000CF93DF938C01C8010E947A1BEC0197FDBC
:1032300008C00E94AE12892BB1F7B801CE010E94DE
:10324000B61BCE01DF91CF911F910F9108958F9200
:103250009F92AF92BF92EF92FF920F931F93CF93E3
:10326000DF938C01D62F7A01B22E0E947A1B9C012B
:1032700033272B32310529F02D323105A9F468941A
:10328000B7F8D15061F480E0DF91CF911F910F9199
:10329000FF90EF90BF90AF909F908F900895C801DE
:1032A0000E947A1B97FDEFCFCB2DCD7F2B2D207366
:1032B000F9F48033E9F4AA24AA94AD0E89F0C80188
:1032C0000E947A1B97FD0CC0282F2F7D283561F4B2
:1032D000C264D25029F0C8010E947A1B97FF08C02F
:1032E000812C912C54011BC0B6FE2BC0C260DA2D7C
:1032F000812C912C540120ED280F283028F1C4FD99
:1033000009C02A3008F1C6FF05C02F7D3FEE320FFD
:103310003630C8F0B8010E94B61BC1FFB4CFC7FF5A
:1033200008C0B094A09490948094811C911CA11C1E
:10333000B11C2C2FB501A401C7010E94DF1881E048
:10334000A3CFC261D4CF27504C2FC501B4010E9436
:10335000EB184B015C01C260D15009F3C8010E9417
:103360007A1B97FFC8CFD9CFA0E2B0E0EAEBF9E132
:103370000C9415145C01962E7A01CE0101966C0115
:1033800080E2F60111928A95E9F7F501B38189018E
:1033900030E020E0712C812CA0E041E050E0F80109
:1033A000B3FD8591B3FF8191982F8F01811107C0E3
:1033B00010E000E0C801A096EDE00C9431148E35C9
:1033C00019F42115310541F1A21713064CF48D357E
:1033D00049F18D3229F4811006C0882483941DC0E0
:1033E000882009F464C0E92FE695E695E695EC0D92
:1033F000FD2DF11D892F8770BA0101C0660F8A95D6
:10340000EAF78081682B6083791651F0971510F4E4
:103410009F5FE9CF9150E7CFA1E02F5F3F4FBFCF34
:10342000812CFBCF882019F08E8180628E83AA23A5
:1034300059F0F6019E012F5D3F4F8081809580837A
:103440003196E217F307C9F788248394C5010E94D7
:103450007A1B97FD16C0E82FE695E695E695EC0DEC
:10346000FD2DF11D208130E0AC014770552702C0D1
:10347000359527954A95E2F720FD06C0B5010E94D3
:10348000B61B882069F094CFE114F10429F0F7010C
:103490008083C70101967C019A94812C9110D6CF2C
:1034A000E114F10409F486CFF701108283CFE82FED
:1034B000E695E695E695EC0DFD2DF11D982F97709C
:1034C000BA0101C0660F9A95EAF79081692B608373
:1034D000782EA3CFB0E0A0E0E0E7FAE10C9413145B
:1034E0006C01EB015A01FC0117821682512CF60186
:1034F000E380FE01E3FC8591E3FE8191182FEF014B
:103500008823E9F090E00E94AE12892B21F0C601D9
:103510000E940E19ECCF153241F4FE01E3FC159127
:10352000E3FE1191EF01153269F4C6010E947A1B86
:1035300097FD8EC01817D9F2B6010E94B61B852DD3
:1035400090E08AC000E01A3231F4E3FC1591E3FE0A
:103550001191EF0101E0F12C20ED210F2A3048F10B
:1035600001FF37C0FF2059F31836B1F11C3609F4BA
:103570003DC0112321F3612F70E08EEB90E00E949B
:103580006F1B892BE1F2912C812C00FD06C0F50107
:1035900080809180C50102965C011E3679F5F601A6
:1035A0004681578170E060E0202FC4010E94DF183F
:1035B0009ECF02606F2D70E090E080E040E20E94BC
:1035C000EB18F62EFE01E3FC1591E3FE1191EF01DD
:1035D000C3CFFF24FA94C8CFFE01E3FC1591E3FEAC
:1035E0001191EF01183609F0C4CF08600460FE01A4
:1035F000E3FC1591E3FE1191EF01BBCF1336C1F44B
:1036000001FD02C0FF24F394C6010E947A1B97FDBE
:103610001FC08114910429F0F4018083C401019634
:103620004C01FA94F110F0CF00FD61CF53945FCFBD
:103630001B35B9F49E01A4016F2DC6010E94B41977
:10364000EC01892B89F7F6018381807309F477CF28
:103650008FEF9FEF511073CFCDB7DEB7EFE00C9433
:103660002F14C6010E940E1997FDF2CF1F36A9F143
:1036700030F4143641F0193639F0006405C01337C0
:10368000B9F01537D1F70062202FA4016F2DC601C4
:103690000E9427198111C8CFD6CF8114910429F037
:1036A000F4016082C40101964C01FA94FF2071F08C
:1036B000C6010E947A1B3C0197FD08C00E94AE1211
:1036C000892B59F3B601C3010E94B61B81149104E2
:1036D00009F4AACFF4011082A7CF0061D5CFFC0175
:1036E0000590061621F00020D9F7C0010895319702
:1036F000CF010895CF93DF93EC012B8120FF1AC0F7
:1037000026FF0CC02F7B2B838E819F8101969F8388
:103710008E838A8190E0DF91CF91089522FF18C0B7
:10372000E881F9818081082E000C990B009729F41B
:1037300020622B838FEF9FEFEECF3196F983E883E2
:103740002E813F812F5F3F4F3F832E839927E3CF09
:10375000EA85FB85099597FFF3CF2B81019621F030
:1037600080E2822B8B83E6CF80E1FBCFFB012381BC
:1037700020FF11C026FD0FC08F3F980771F0828394
:103780002F7D20642383268137812150310937839F
:103790002683992708958FEF9FEF0895F894FFCF20
:1037A00000008F0580000000000000000200020001
:1037B0000000020002000000010001000000010002
:1037C00002000200010000000000F8021802450299
:1037D0004503B6025402A8020D0A00207C20006EA8
:1037E000616E00696E66006F7666004D6F766520CB
:1037F000746F2063656C6C5B005D5B005D20636FC4
:103800006F7264696E6174652028002C20000A4480
:103810006F6C7068696E207468696E6B696E672E74
:103820002E2E00446F6C7068696E2063686F6F7332
:1038300065733A205B005D000A3D3D3D3D3D3D3DE9
:103840003D3D3D3D3D3D3D3D3D3D3D3D3D3D3D3DA8
:103850003D3D3D3D3D3D3D3D3D3D3D3D3D3D3D3D98
:103860003D00446F6C7068696E20776F6E21000AAE
:103870004C6F6E672070726573732074776F20626F
:103880007574746F6E7320746F207374617274201A
:1038900061206E65772067616D6521000A48756D4E
:1038A000616E20506C7965722773207475726E2179
:1038B00020496E70757420706F736974696F6E2023
:1038C00028726F7720636F6C756D6E29006578695B
:1038D00074000A47616D6520656E6465642100258A
:1038E0006420256400496E76616C696420666F729D
:1038F0006D61742120496E70757420726F772D6E22
:10390000756D20636F6C2D6E756D00496E76616C00
:10391000696420696E7075742120526F772F436F30
:103920006C756D6E206D75737420626520302D325C
:1039300000496E76616C696420696E70757421202F
:10394000507265737320307E382074696D65730022
:10395000436F756E743A200048756D616E20706C0F
:1039600061796572206D616B657320746865206D87
:103970006F76653A205B0048756D616E20776F6EDB
:1039800021004F63637570696564212043686F6F20
:10399000736520616E6F7468657220706F736974EF
:1039A000696F6E0044726177210020202020202062
:1039B0002020446F6C7068696E205469632D5461D7
:1039C000632D546F652047616D65202020202020E5
:1039D000202000204C6F6E67207072657373203258
:1039E00020627574746F6E7320746F676574686598
:1039F0007220746F2073746172742000204C6F6E9B
:103A000067207072657373203220627574746F6EF4
:103A10007320746F20666F72636520656E64206723
:103A2000616D6520002048756D616E20706C617954
:103A3000657220696E707574732076696120736594
:103A40007269616C206D6F6E69746F722000466FD1
:103A5000726D61743A20526F7720696E64657828C0
:103A6000302D322920436F6C756D6E20696E646550
:103A70007828302D322900202020202020652E6734
:103A80002E20203120312069732074686520636501
:103A90006E7465722063656C6C20202020202000ED
:103AA00020202020202020202020202020204761AE
:103AB0006D65207374617274732120202020202092
:103AC0002020202020202020000A4E6577206761DA
:103AD0006D652120446F6C7068696E20676F657337
:103AE000206669727374202858292C2068756D61CE
:063AF0006E20284F2900A2
:107E0000112484B714BE81FFF0D085E080938100F7
:107E100082E08093C00088E18093C10086E0809377
:107E2000C20080E18093C4008EE0C9D0259A86E02C
:107E300020E33CEF91E0309385002093840096BBD3
:107E4000B09BFECF1D9AA8958150A9F7CC24DD24C4
:107E500088248394B5E0AB2EA1E19A2EF3E0BF2EE7
:107E6000A2D0813461F49FD0082FAFD0023811F036
:107E7000013811F484E001C083E08DD089C08234E0
:107E800011F484E103C0853419F485E0A6D080C0E4
:107E9000853579F488D0E82EFF2485D0082F10E0AE
:107EA000102F00270E291F29000F111F8ED06801E7
:107EB0006FC0863521F484E090D080E0DECF843638
:107EC00009F040C070D06FD0082F6DD080E0C81688
:107ED00080E7D80618F4F601B7BEE895C0E0D1E017
:107EE00062D089930C17E1F7F0E0CF16F0E7DF06D8
:107EF00018F0F601B7BEE89568D007B600FCFDCFD4
:107F0000A601A0E0B1E02C9130E011968C91119780
:107F100090E0982F8827822B932B1296FA010C0160
:107F200087BEE89511244E5F5F4FF1E0A038BF0790
:107F300051F7F601A7BEE89507B600FCFDCF97BE46
:107F4000E89526C08437B1F42ED02DD0F82E2BD052
:107F50003CD0F601EF2C8F010F5F1F4F84911BD097
:107F6000EA94F801C1F70894C11CD11CFA94CF0C13
:107F7000D11C0EC0853739F428D08EE10CD085E9AC
:107F80000AD08FE07ACF813511F488E018D01DD067
:107F900080E101D065CF982F8091C00085FFFCCF94
:107FA0009093C60008958091C00087FFFCCF809118
:107FB000C00084FD01C0A8958091C6000895E0E648
:107FC000F0E098E1908380830895EDDF803219F02E
:107FD00088E0F5DFFFCF84E1DECF1F93182FE3DFCA
:107FE0001150E9F7F2DF1F91089580E0E8DFEE27F6
:047FF000FF270994CA
:027FFE00040479
:00000001FF
